:020000042000DA
:1000000000680020891D0020C51D0020C71D00209C
:1000100000000000000000000000000000000000E0
:10002000000000000000000000000000C91D0020CA
:100030000000000000000000CB1D0020CD1D0020AE
:10004000CF1D0020CF1D0020C90B0020CF1D002098
:10005000CF1D002000000000210A0020CF1D00203D
:10006000CF1D00207D170020610B0020CF1D002038
:10007000CF1D0020CF1D0020CF1D0020CF1D002050
:10008000CF1D0020990F0020CF1D0020CF1D002084
:10009000CF1D0020091C0020411D0020CF1D002085
:1000A000CF1D0020CF1D0020000000000000000038
:1000B0000000000000000000000000000000000040
:1000C00010B5064C2378002B07D1054B002B02D02E
:1000D000044800E000BF0123237010BDA8480020A1
:1000E00000000000602A002008B5084B002B03D058
:1000F0000748084900E000BF07480368002B00D10B
:1001000008BD064B002BFBD09847F9E70000000024
:10011000602A0020AC480020A84800200000000011
:10012000164B002B00D1144B9D46402292029A1A86
:10013000924600218B460F461348144A121A02F0C9
:100140000FF90F4B002B00D098470E4B002B00D01F
:1001500098470020002104000D000D48002802D01F
:100160000C4800E000BF02F0B3F82000290000F0C6
:100170009BFB02F097F8C0460000080000680020D2
:100180000000000000000000A84800209852002055
:10019000000000000000000030B50A4D2B68197007
:1001A0002A680B0A53700023002906D02A68C45C11
:1001B000D218013394708B42F8DB0122024B1B688A
:1001C0001A7030BD144800200C480020F0B55F467E
:1001D00056464D464446F0B487B000AF0C1C9046DE
:1001E000DD281ED0DE285FD0E12800D1E6E0E2283D
:1001F00000D186E1E32800D164E1E42800D142E1A6
:10020000E52800D197E1E62800D1CFE0E72800D12A
:10021000F1E0BD4607B03CBC90469946A246AB46CD
:10022000F0BD0A78D84BD94D98461A70CB78190290
:10023000A3781B040B4321790B43617809060B4318
:10024000D3490B608946E1791B0B0802A179013380
:1002500009040143207ADEB208436179CD4B0906D7
:10026000014329609B46002A00D0BCE080235A4607
:100270001B021360002E00D1CCE000245B461B68FB
:1002800020039C460134604401F06CFCB442F5D379
:1002900043461A78002A00D1BCE0012A00D1D7E0F9
:1002A0000022BD4B1A60B4E7002A00D1E2E0BA4D4B
:1002B0002B6843441A1C2B68CC1AB84989464E4611
:1002C000E05C5905490D013370542B609342F6D11F
:1002D00043461B0A191C3B604046FF2318407860C8
:1002E0000B1E17D0013B9A46AA4B00249B4600E008
:1002F00001345B4641461B68581A2302C3189818FC
:100300008022311C5200013601F0E0FBFF362A68E2
:100310005445EDD17B68002B00D08BE09C4B1B68D3
:10032000934200D075E7130A191C3B60FF2313406A
:100330007B6001239A4E5B423360002924D03B68E6
:100340001B02984600239A46924B9B46934B994634
:100350005D1CFF355B4680224C461B6852005344AF
:10036000181C494601F066FB3268201C012101F08F
:1003700021FC0134021C3060AC42F6D180235B00CA
:100380009C46E244C245E5D17B68002B00D0DDE00D
:1003900032687D4B1B78002B67D0012B00D0EEE03C
:1003A000804B7A499B6A0B60934214D000233B73C5
:1003B0000C33F8180121FFF7EFFE2AE701230C7830
:1003C000764A1370234258D1A30704D575480121FA
:1003D000012201F06DF801233B730B33F818012162
:1003E000FFF7DAFE15E7A02359469B020B60002EAB
:1003F00000D042E751E70B23F9180233FA18694895
:1004000000F0D4FFFB7A09213B730C23F818FFF7A7
:10041000C3FEFEE6634C0021201C012201F030F8EF
:100420004B462A681968201C012301F039F843461D
:100430001A7832E73B681902564B18684346081889
:10044000C01A801849447A6801F040FB2A6865E7C1
:10045000544C0021201C01F02BF84B462A681968E7
:10046000201C012301F034F81AE74E4B47491B6A60
:100470000B6099E7484B1A6850E74A48012101226E
:1004800000F0FEFFA0E76D460978012A7AD9621CC8
:10049000444C201C00F07CFF43466A460733DB08CF
:1004A000DB00D31A9D465A1C0C236E46F918201CFB
:1004B00000F07CFF3B7B684633704146FFF76CFEE3
:1004C000AD46A6E6374D6E46281C00F07DFF211C88
:1004D0004246281C00F086FF281C01F03DF84346E8
:1004E0000733DB08DB00F31A9D46002269464346CA
:1004F000281C00F093FF68464146FFF74DFEB546C5
:1005000087E6002001F02EFB211C4246002001F06E
:10051000DDFA43466D460733DB08DB00EB1A9D46E8
:1005200042466946002001F085FA68464146FFF7D9
:1005300033FEAD466DE60C231A48F91800F020FF93
:100540000C230821F818FFF727FE62E60024114A61
:100550003B6810681B021818104B7A68191C9946E2
:1005600001F068FA32684B460121181901F022FBAC
:100570007B680134021C30609C42F4D109E7034BD4
:100580001B6811E7002283E7CC480020C448002004
:10059000C8480020D0500020D4500020D04800206F
:1005A00010480020D850002008B508210348FFF764
:1005B000F3FD034801F02AF808BDC04660000010B2
:1005C000D850002010B50D4C23681B78012B00D0AB
:1005D00010BD0B4B1B681A780A4B12021B68187867
:1005E000094B1968094B1B681B78D21892B2FFF7A8
:1005F000EDFD002223681A70EAE7C0461848002083
:10060000084800201C480020044800202048002002
:1006100008B5024800F0B0FE08BDC046D850002022
:100620002C4B1B78012B1AD0802180200023C90578
:1006300040000B5001330B6080230A58DB05002A71
:10064000FAD0A3220221D200995000220331FF31B7
:100650005A5001329A605A58002AFCD070471E4BFB
:100660001B681B07E0D1F0221C4B1B68134018D1FC
:100670001B4B1B6813421AD0174B1B681B07D3D1A7
:10068000F022164B1B681340402BCDD1144B1B6836
:100690001342C9D1C12380220121DB00D205D150F0
:1006A000C2E7102B0FD10E4B1B681342E8D10D4A45
:1006B0000D4B1A6080220D4B12021A60054B1B78FD
:1006C000012BD9D0B0E7302BDAD1054B1B68134290
:1006D000D6D1ECE7E00F00F0E40F00F0E80F00F0F7
:1006E000EC0F00F0DFFF07C004050040186C00406D
:1006F00010B5041C026A436AC168806812184B4135
:10070000201C00F061F8E36B002B06D0A06A0028E3
:1007100002D0211C2C31984710BDA36A002BFBD0BE
:100720009847F9E710B5074B041C0833036000F045
:1007300057F80023201CA362E36300F037F8201C65
:1007400010BDC0461824002010B5084B041C083307
:10075000036000F045F80023201CA362E36300F06F
:1007600025F8201C01F034FB201C10BD18240020AB
:1007700008B503689B68984708BDC04610B5094B8B
:1007800000220833036000238260C36000230361FA
:100790004361041C00F00CF90349A06100F08CF8DF
:1007A000201C10BD302400207107002010B5011C52
:1007B000041C044B083108330360806900F0D0F852
:1007C000201C10BD3024002010B582B0011C8469AB
:1007D00008310090201C00F0A1F802B010BDC04606
:1007E00008B5011C8069083100F0BAF808BDC046A0
:1007F000FEE7C0460FB408B5012001F053FDC04626
:1008000070B50D1C041C161C00F0DEF86B1C0CD01F
:10081000002E0BD1236962681A60201C012100F0B0
:10082000F1F8201C002100F0E7F870BDE368626871
:100830001A60F2E708B5012001F034FD08B5002880
:1008400000D1FEE7FFF7D4FFFBE7C04608B58842BA
:1008500008D0431C07D04B1C04D00448FFF7CAFF44
:100860000120404208BD081CFCE7C0465C24002073
:1008700008B5021C531C03D10BE09A420AD00C317C
:100880000023CB56581CF8D10448FFF7B3FF0120D2
:10089000404208BD4868431CFBD1F5E770240020A6
:1008A0007047C0467047C04608B5FFF7FBFFFFF72B
:1008B000F7FF01F05FFA08BD38B50368041C1B6838
:1008C0000D1C984763681D6038BDC04638B5036885
:1008D000051CDB6898476B680EE01C682B685B683A
:1008E0009847241A002C0EDC6B685968CA685A6055
:1008F0006B681A68002A0ED15B68002BEDD12B685B
:100900009B68984738BD6A682B6852681B691068F5
:1009100051689847F6E788689047DCE770B50D1C8A
:1009200072B64B600A600499A96041684C68002C5B
:100930000ED02668961B04D50AE01968511A03D414
:100940001C1CE368002BF8D1E560EB6062B670BD5B
:100950004D600168101C0E69191CB047231CF4E798
:1009600008B572B643685A688A4211D0002A09D085
:10097000D3688B4204D107E0DA688A4205D0131CA1
:10098000002BF9D162B608BD131CCA68DA60F9E71A
:10099000D2685A6043685B68002B05D0026818680B
:1009A000596813699847EDE703689B689847E9E73A
:1009B00000487047C424002008B50248FFF786FFAE
:1009C00008BDC046C424002001704B1C0AD001237E
:1009D0008B404360044BC360044B0361044B436191
:1009E000044B83607047C046080500500C0500505A
:1009F000100500501405005008B5007840B200F012
:100A00009DF808BD002901D0012907D10023A022AB
:100A1000C356D205C133FF339B0099507047C0467F
:100A2000F0B54F464646C0B483B0A223A022DB00F7
:100A3000D205D358BE220193394B52009958002950
:100A400004D0C12189005958002904DB03B00CBC33
:100A500090469946F0BD00219950324B324D99464F
:100A6000324B0024324E984606E098580143995084
:100A7000013404351F2CE9D028680028F8D0A35D84
:100A8000002B24D0019B0122E3401A420FD0231CEB
:100A9000A021C133FF339B00C9055B589B039B0F0B
:100AA000032B04D0234B1B68E3401A4233D1019B34
:100AB0000122E3401A420AD1231CA021C133FF3393
:100AC0009B00C9055B589B039B0F032B19D0A022E9
:100AD000D2059446E022C021A3006344D200985876
:100AE00089020842C4D09F58134838409850019852
:100AF000E040C007B9D48020995880020143995042
:100B0000B6E74B461B68E3401A42E0D04346022159
:100B10001B689847DBE7054B01211B689847D6E720
:100B200000600040D851002038510020345100208E
:100B3000B8510020B4510020FFFFFCFF10B5A023E6
:100B4000DB059C46E0230C2480006044DB00C25897
:100B50008900A243C250C2581143C15010BDC046C3
:100B6000A6230021124A5B00D150124B1988124B68
:100B7000D150124B1978002904D011490888A821B6
:100B8000C90050505A78002A04D00D4A08495088AC
:100B90000C4A88509B78002B05D0094B044A998851
:100BA000A923DB00D1500122014B1A607047C046D7
:100BB00000A00040244800204C050000DC5100202B
:100BC000284800204405000008B5C1220F4B9200C0
:100BD0009A58120604D58E2252009B58002B13D12E
:100BE000C1220A4B92009A5852070CD58422520017
:100BF0009B580021002B06D0054B1868002802D016
:100C0000044B1B68984708BD0121F5E70020004010
:100C1000E0510020E451002070B51E1C041C151C7E
:100C20000368002E1DD0A02300224068DB00C250C4
:100C3000082902D01648FFF7DDFD012D25D01CDD67
:100C40000423022D02D00233032D19D1114A002EA4
:100C50000BD061688B50A02302216268DB00D15069
:100C600070BDA022D2009E50E2E721688B50A023E5
:100C700001212268DB00D150F2E70023002DE5D0EE
:100C80000548FFF7B7FD0023E0E70223DEE7C04693
:100C90005C250020540500007825002010B503686D
:100CA0005A1C13D0A0220024D2009C501F4B994202
:100CB0000DDD1F4B994210DC80221E4B0168D204CF
:100CC000CA50A02301210268DB00D15010BD802250
:100CD000184B01689204CA50F3E7174B994208DD9C
:100CE000164B99420BDC8022124B01685205CA5008
:100CF000E7E780220F4B01681205CA50E1E7104B6D
:100D0000994208DD0F4B802299420ADC094B0168A9
:100D1000D205CA50D5E78022064B01689205CA5019
:100D2000CFE7044B01681206CA50CAE78FD0030010
:100D30001FA10700240500003F420F007F841E0012
:100D4000FF083D00FF117A00F0B55F4656464D465C
:100D50004446F0B483B000251E1C0193041C0CAB68
:100D6000081C884657495D57171CFFF781FD5649F7
:100D70008346381CFFF77CFD54498246301CFFF740
:100D800077FD53498146281CFFF772FD5146061C2A
:100D90005846FFF75BFD311C82464846FFF756FD7B
:100DA000011C5046FFF752FD6B1C56D001235B42DD
:100DB000236000230121474A6060835060684646F3
:100DC00081504046A022C130FF30D20580008350C0
:100DD000381CC130FF30800083500198C130FF3093
:100DE00080008350281CC130FF3080008350A22235
:100DF0006068D20086506068374A019E87506068FC
:100E0000043A86506068354A8550822260685200F4
:100E10008350606824328350A7236268DB00D1507E
:100E200062681033D15061682D4A2E4B201CCA5085
:100E300061682D4A2D4BCA508023042261689B00B3
:100E4000CA50082100220123FFF7E6FE03B03CBC94
:100E500090469946A246AB46F0BD00231D4A20604D
:100E60006560835001202168464688504146A02293
:100E7000C131FF31D20589008850256816496E506E
:100E8000019D291CC131FF3189008850A1212068B2
:100E9000C9004550391CC131FF3189008B50A22255
:100EA0002168D2008F508422216852008B50201C70
:100EB00008210022FFF7B0FE201C0D49FFF7EEFECF
:100EC000C4E7C0468C250020CC2400201425002037
:100ED000D4250020FC0F00000C05000014050000C4
:100EE000EC51002044050000E851002034050000CA
:100EF00040420F0010B58424026864001359002B8F
:100F0000FCD1084BD1508421026849005358012B71
:100F1000FCD100210833FF33D150A3230268DB004A
:100F2000D05810BD1C05000010B5A1230021174AA0
:100F3000DB00D150D2210223C42089005350443910
:100F40005350134980000C58124B2340C0242402F4
:100F500023430B50802391389B02FF380B500B60CA
:100F6000012313602E33C046C046C046C046C0466B
:100F7000C046C046C046C046C046C046C046C04641
:100F8000C046013B002BEED110BDC0460010014011
:100F900000E100E0FF00FFFFF8B58221224B49008D
:100FA0005A58002A0AD0214A1068013010600022E5
:100FB0005A50D2220339FF3992009950A0221A4B7D
:100FC00052009958002926D00024D2209C5080221B
:100FD00080005202164D1A502A78002A1BD0822611
:100FE000144A760011689A59002A15D10F4A1368DD
:100FF0000D48114A1B0682581343CB1A002B0ADCFA
:101000000023C2222B70802392005B028350403267
:101010008350FFF7D1FCF8BD044A17680137176009
:101020009C5102241C50E2E700100140F4510020C2
:10103000F9510020F05100200405000010B5044CC7
:101040002378002B03D1FFF76FFF0123237010BD1E
:10105000F851002010B5154C2378002B03D1FFF771
:1010600063FF012323708221114A49005358002B4A
:1010700019D0104B18680130186000205050D22150
:101080000230890050500C4A09491B688858190AD7
:101090001B061843094A002300F0C8FE4B04C00B8E
:1010A0001843C90B10BD034BEDE7C046F8510020B3
:1010B00000100140F45100200405000040420F00E0
:1010C00070B5474E041C33780D1C002B03D1FFF77D
:1010D0002BFF012333708222424B52009958424E1B
:1010E000002908D031680131316000219950D222A5
:1010F0000231920099503D4A3A4933688858190A9A
:101100001B0618433A4A002300F090FE4B04C00B24
:1011100018430022CB0B802112196B41090688422B
:1011200001D9002D54D0D9030023540CD003314AE7
:1011300021438018594100232D4A00F057FE2E49C3
:101140002E4D0B78002B02D02B6898423FD0822284
:10115000244B52009C58002C08D034680134346071
:1011600000249C50D222023492009C501D4C1F4AF5
:101170003368A2581B061343C31A022B14DC8223C4
:101180005B00E258002A08D0326801323260002247
:10119000E250D22302329B00E250144B114A3068D5
:1011A000D358000618430230A82403020D4A1B0A34
:1011B000E40013510B782860002B08D101330B7029
:1011C0008023D2215B02890053504439535070BDB3
:1011D000002CA8DB0020012112184B41A3E7C046D8
:1011E000F851002000100140F451002004050000D7
:1011F00040420F003F420F00F9510020F051002003
:10120000074B1A78002A09D08021C220054A4902DA
:10121000800011504030115000221A707047C046B3
:10122000F95100200010014082210022024B4900A8
:101230005A503C315A5070470010014038B50B4DA0
:101240002B6883420CD02423041CC15C0133C25C94
:101250000023FFF7E1FC201CA16AFFF71FFD2C60B3
:1012600001220120024B1A7038BDC046FC510020FB
:10127000FA510020F0B583B00027041C08A8C75716
:1012800024260020082520606060207220732061E1
:101290006061A061E0612062A5551D3560550D4873
:1012A000A062012040420090201CFFF74DFD625DCE
:1012B0000023A15D201CFFF7AFFC201CA16AFFF7F3
:1012C000EDFC201C391C0C300122FFF799FA201C80
:1012D00003B0F0BD40420F0038B52423C1540133A0
:1012E000C2540022064C074B25781A60002D00D00E
:1012F00038BDFFF7A3FF0028FAD02570F8E7C046F5
:10130000FA510020FC51002038B50022064C074B52
:10131000257881621A60002D00D038BDFFF78EFF5E
:101320000028FAD02570F8E7FA510020FC5100207F
:1013300008B5054A031C12780020002A02D1181CA7
:10134000FFF77CFF08BDC046FA5100200022014B88
:101350001A707047FA510020C36902691A60704719
:10136000836902691A6070477047C04608B5FFF785
:10137000C1FDC0B208BDC04600224823C254704718
:1013800008B5031C0822081C191C00F0E0FF08BD6A
:101390008163002A08D0031C44303C3311780132A9
:1013A000197001338342F9D17047C046836B0B70CB
:1013B000002A08D0031C44303C33197801331170E3
:1013C00001328342F9D1704710B501224823041C31
:1013D000C2548020C00100F0C5FB0023E364013B40
:1013E000236510BD70B58024C36CA400D518A54238
:1013F00010D8151C041C0E1C074A98182A1C00F053
:1014000065FBE36C301C5B19E364291C226D00F062
:10141000D1FB206570BDC0460C40000038B50469A2
:10142000D5180020A54207D8101C044A94461A1C5F
:10143000604400F0FFFA012038BDC0460C500000A7
:1014400038B5041C01221834051C2C215242201CE2
:1014500000F0B0FB68648025AD01281C00F082FB21
:10146000281CC025211C3022AD0100F02FFB281CB8
:1014700000F078FB281C211C302200F027FB38BD2F
:1014800008B50123002907D081690B438361002A35
:1014900001D0FFF7D5FF08BD816999438161F6E767
:1014A00008B5C1610262002B01D0FFF7C9FF08BD7A
:1014B00008B50223002907D081690B438361002A04
:1014C00001D0FFF7BDFF08BD816999438161F6E74F
:1014D00008B541628262002B01D0FFF7B1FF08BD61
:1014E00070B590B0056900260C35002D14D02C1E67
:1014F000402C00D94024A023DB01F0186946221CAF
:1015000000F098FA8023DB01F0186946221C00F0F5
:10151000DDFA36192D1BEAD110B070BD70B590B050
:10152000056900260C35002D14D02C1E402C00D946
:1015300040248023DB01F0186946221C00F07AFA6F
:10154000A023DB01F0186946221C00F0BFFA36190F
:101550002D1BEAD110B070BD38B5FF22051C041C4C
:10156000C36C0C350361C368082101331340C360A9
:10157000226D281C00F01EFB60618020291C0C22BB
:10158000C00100F0A3FAA020C00100F0EBFA201C7B
:10159000FFF7C4FF00224823E25438BDF0B54746A8
:1015A00080B494B00C22081C884601A900F042FACD
:1015B0008023029C9B009C4204D9134814B004BCB5
:1015C0009046F0BD002C1BD001270C267F42251E23
:1015D000402D00D94025434604A9F0182A1C00F0EC
:1015E00029FA3A1C04A8291C00F0E4FA7619071C11
:1015F000641BECD101A808213A1C00F0DBFADDE7FE
:1016000001277F42F6E7C04655555555F0B58FB0D6
:10161000041C0C22211C002000F00CFA0122201CCA
:101620000821524200F0C6FAA368834204D0201C6D
:101630003021082200F094FE251C80201835291C3A
:101640003022800100F0F6F90122281C2C215242A0
:1016500000F0B0FA636C834268D0C020291C3022AD
:10166000800100F0E7F90122281C2C21524200F0F1
:10167000A1FA636C834200D170E00023201CA361B7
:10168000E36123626362A362E362303000210822D7
:1016900000F066FE251C80200C35291C0C22C001A0
:1016A00000F0C8F98021201CC901FFF777FF6369AA
:1016B000834212D0A020291C0C22C00100F0BAF9EC
:1016C000A021201CC901FFF769FF6369834224D070
:1016D0000023E36023610FB0F0BD80262369B600CC
:1016E000B342E7D8A0200C2202A9C00100F0A2F961
:1016F000A021201CC901FFF751FF291C071C0C2247
:1017000002A800F015FE002803D1049B0193BB4200
:101710002FD0201CFFF702FFDDE7802322699B000A
:101720009A42D5D8201CFFF7DBFED4E7C02002A9DF
:101730003022800100F07EF902A8291C302200F03E
:10174000F7FD0028A6D0C020800100F00BFAC020D1
:10175000291C3022800100F0B9F99BE7802080012C
:1017600000F000FA8020291C3022800100F0AEF940
:1017700090E7039BB342AED9CBE7C04608B5A022A1
:10178000084B5200995800290BD0C12189005958A3
:10179000C90306D500219950034B1B68002B00D0CC
:1017A000984708BD009000400052002010B50A4C38
:1017B000201CFFF7BDFD00280CD0201CFFF7CCFD3E
:1017C0000621201CFFF7D2FD201CFFF7C9FD201CBD
:1017D000FFF7BCFD10BDC0460852002070B50E4C8E
:1017E000012613E0201CFFF7B7FD0521201CFFF7A1
:1017F000BDFDFF21201CFFF7B9FD051C201CFFF7D4
:10180000AFFD201CFFF7A2FD2E4204D0201CFFF7E5
:101810008FFD0028E6D170BD0852002070B5041C71
:101820000E1CFFF7DBFFFFF7C1FF144D281CFFF76D
:101830007FFD002800D170BD281C240BFFF78CFD14
:1018400024032021281CFFF791FD210CC9B2281C7C
:10185000240AFFF78BFDE1B2281CFFF787FD00216A
:10186000281CFFF783FD281CFFF77AFD281CFFF7D3
:101870006DFD002EDFD0FFF7B1FFDCE7085200203E
:10188000F0B5474680B49846061C0C1C171CFFF7A1
:10189000A5FFFFF78BFF1C4D281CFFF749FD002318
:1018A000002803D1181C04BC9046F0BD281CFFF78B
:1018B00053FD0221281CFFF759FD310CC9B2281C29
:1018C000FFF754FD310AC9B2281CFFF74FFDF1B2F2
:1018D000281CFFF74BFDE619002F06D02178281CA5
:1018E0000134FFF743FDB442F8D1281CFFF738FD5F
:1018F000281CFFF72BFD4346002B01D13B1CD1E7F1
:10190000FFF76CFF3B1CCDE708520020F0B54746BF
:1019100080B49846061C0C1C171CFFF75FFF1F4D78
:10192000281CFFF705FD0023002803D1181C04BC68
:101930009046F0BD281CFFF70FFD0B21281CFFF778
:1019400015FD310CC9B2281CFFF710FD310AC9B2D0
:10195000281CFFF70BFDF1B2281CFFF707FD281C20
:10196000FF21FFF703FDE619002F07D0281CFF21F8
:10197000FFF7FCFC20700134B442F7D1281CFFF7BC
:10198000EFFC281CFFF7E2FC4346002B01D13B1C77
:10199000CCE7FFF723FF3B1CC8E7C04608520020F6
:1019A00010B5134C201CFFF7C3FC00281ED0201CD0
:1019B000FFF7D2FC9F21201CFFF7D8FCFF21201C41
:1019C000FFF7D4FC0B4BFF211870201CFFF7CEFC57
:1019D000094BFF211870201CFFF7C8FC074B18703B
:1019E000201CFFF7BDFC201CFFF7B0FC10BDC0465B
:1019F0000852002004520020075200200552002007
:101A000010B5094C201CFFF7ABFC201C002208215C
:101A1000FFF762FC201C0549FFF776FC0122044B0E
:101A20001A70FFF7BDFF10BD0852002000B4C404B7
:101A300006520020F0B557464E464546E0B4224BCC
:101A4000061C1B780C1C171C002B37D0FF2580238D
:101A500035405B005D1BBD4200D93D1CB2462A1CCF
:101A6000211C0123301CAA4464197D1BFFF74EFF83
:101A70002B0A1A029046AA1A9146002B21D04346FF
:101A8000E51853461E1B8022A019211C0134520068
:101A90000123FF34FFF73AFFAC42F4D1C2444B4676
:101AA000002B05D05046291C4A460123FFF72EFF84
:101AB000381C1CBC90469946A246F0BDFFF7A0FF1B
:101AC000C4E7251CEBE7C04606520020F0B5574698
:101AD0004E464546E0B4224B061C1B780C1C171CD6
:101AE000002B37D0FF25802335405B005D1BBD42B6
:101AF00000D93D1CB2462A1C211C0123301CAA44DB
:101B000064197D1BFFF7BCFE2B0A1A029046AA1A25
:101B10009146002B21D04346E51853461E1B8022D8
:101B2000A019211C013452000123FF34FFF7A8FE45
:101B3000AC42F4D1C2444B46002B05D05046291C80
:101B40004A460123FFF79CFE381C1CBC9046994670
:101B5000A246F0BDFFF754FFC4E7251CEBE7C046E3
:101B60000652002010B5064B041C1B78002B01D137
:101B7000FFF746FF201C0121FFF750FE10BDC046B5
:101B80000652002010B582B01F23074C0093201C82
:101B90000E3B12210C22FFF76DFB201C0349044A67
:101BA00000F01AF902B010BD08520020691300209D
:101BB0000048002030B5D24300290CD0FF24074D47
:101BC000411803780130534023409B00EB58120A20
:101BD0005A408842F5D1D04330BDC046F825002098
:101BE0007047C0467047C04680B2002800D070479A
:101BF000BFF34F8F024A034BDA60BFF34F8FFEE70C
:101C00000400FA0500ED00E008B50123044A10784D
:101C10005840044B10701B68002B00D0984708BD3B
:101C2000385200203452002010B5074C201CFEF71B
:101C3000A5FD064B201C236000230549A362E36336
:101C4000044A00F0C9F810BD4052002020240020B2
:101C5000250700200048002051DF704761DF7047F2
:101C6000F0B557464E464546E0B482B0304B314E53
:101C70001D6899466B425D412F4BB2461C689846E1
:101C800063425C412D4FEDB2E4B2002D08D0002C30
:101C900027D002B01CBC90469946A246F0BD012454
:101CA00001A8FFF7D9FF052831D000282AD000214C
:101CB0000022FFF799FF002CF1D16A461D4B01A9C4
:101CC0001B8893801D4B1C68201CFFF7C7FF05284D
:101CD000E5D0002810D000210022FFF785FF002466
:101CE000D3E73C68338801A9201C0B80FFF7B6FFBF
:101CF0000528CED00028EED14346201C1B6898470B
:101D00000024C2E74B4601981B689847D3E7002C94
:101D1000BFD153466A461B8801A99380074B012512
:101D20001C68201CFFF79AFF0528D2D1B1E7C046F6
:101D300088520020825200208C52002084520020C1
:101D400008B50A4B1B68002B08D09847002800D123
:101D500008BD00210022FFF747FFF9E7044B1B787D
:101D6000002BF5D0FFF77CFFF2E7C0469052002031
:101D70008052002008B5FFF733FFFEF715FCFFF790
:101D800031FFFEF71FFCFAE70848026803210A4307
:101D900002600749074A084B9B1A03DD043BC858F9
:101DA000D050FBDC0548804705480047240500402B
:101DB0006C2A002000480020A848002021060020AE
:101DC00021010020FEE7FEE7FEE7FEE7FEE7FEE773
:101DD00008B500F0A3FA08BD08B5031C081C191CBF
:101DE00000F052FA08BD00007047C046002B11D128
:101DF000002A0FD1002900D1002802D00021C943B8
:101E0000081C07B4024802A14018029003BDC04656
:101E1000D9FFFFFF03B4684601B5029800F04CF803
:101E2000019B9E4602B00CBC7047C046F0B54F46C1
:101E3000464605042D0C2C1CC0B41704160C3F0C90
:101E40009946030C7C4375435F4373437D19260C0D
:101E5000AD199C46AF4203D980235B029846C44427
:101E60004B465143434324042E0C240C2D0466445A
:101E70002C1959188919201C0CBC90469946F0BDA4
:101E8000F0B583B0161C1F1C0090019100F04CF8B7
:101E9000041C0D1C221C2B1C301C391CFFF7C6FF18
:101EA000009A019B121A8B410899201C0A604B6012
:101EB000291C03B0F0BDC046F0B5141C83B01D1C36
:101EC0000090019100F028F9221C2B1C061C0F1C0D
:101ED000FFF7ACFF009A019B121A8B410899301C46
:101EE0000A604B60391C03B0F0BDC0461C210123C1
:101EF0001B04984201D3000C10391B0A984201D3ED
:101F0000000A08391B09984201D30009043902A2CA
:101F1000105C40187047C046040302020101010131
:101F20000000000000000000F0B544465F46564641
:101F30004D46F0B41C1C85B0002900DAA9E00F1C46
:101F40000021061C8846101C191C002C00DA97E0A2
:101F5000341C3D1C82468946B94273D870D049462C
:101F6000504600F085F98346391C301C00F080F99A
:101F70005B46181A031C8346203B9C4600D59CE018
:101F8000002300225146009201936346994001913B
:101F900051468140019B0091BB4200D983E000D1B2
:101FA0007EE0009A019B341C3D1CA41A9D416346AF
:101FB000002B00DA9AE000260027029603970136EC
:101FC0009E400396012686400296002800D171E0CB
:101FD0000099019AD30799464B464E081E4357086D
:101FE000002301220CE0AF4201D1A6420AD8A41B73
:101FF000BD4124196D410138A4185D41002806D067
:10200000AF42F0D9013824196D410028F8D12022BF
:10201000029E039F5B46524236196F4199185AD46B
:10202000281CC8402C1C5B46DC40002968DB041CD3
:102030008C40231C59468840021CB61A9F4103E07D
:10204000B0428CD90026002741464B1E99410023FF
:1020500000910193009A019B002554429D41331C3D
:102060006340181C3B1C6B40191C009B019CC01852
:10207000614105B03CBC90469946A246AB46F0BDD6
:102080004346DB430C1C9846131C00215842A141D7
:102090005EE7002746428F4101214942884652E7C8
:1020A000B14200D87DE7002600270296039700285A
:1020B00000D08DE7029E039FC6E720215346091AF0
:1020C000CB400022191C0023009201934B46834011
:1020D0000B4301935CE75A4620239B1A2A1C9A4023
:1020E000201C131C5A46D04018439BE7202600278B
:1020F000331A0026029603970127DF40039761E712
:102100005B4620215D46C91A031CAC40CB40191C1C
:10211000231C0B438EE7C046F0B545464E46574656
:10212000E0B4041C82B00D1C914698468B4262D8E4
:102130005FD04146484600F09BF8291C061C201C35
:1021400000F096F82023311A5B428A46C81865D4FD
:102150004B4683401F1C4B468B401E1CAF4258D839
:1021600055D0A41BBD41002800DA77E000220023EF
:102170000092019301328240019201238B4000932F
:1021800000293CD0FB079846404672087B08024372
:10219000012600270CE0AB4201D1A2420AD8A41AC2
:1021A0009D4124196D410139A4197D41002906D0B2
:1021B000AB42F0D9013924196D410029F8D1202210
:1021C0000098019953465242001969419E183AD429
:1021D0002F1CF7405346DD40002E29DB3C1CB44049
:1021E000231C5446A7403A1C801A99410090019143
:1021F00005E082429DD900230024009301940098B9
:10220000019902B01CBC90469946A246F0BDA3427B
:10221000A7D90022002300920193B1E720224B4668
:10222000521AD3401A1C43468B401F1C174392E797
:10223000534620245646E41A3B1CB540E3401C1C80
:102240002B1C2343CDE7524620239B1A2A1C9A407D
:10225000271C131C5246D7401F43BBE720230022F4
:10226000581A0023009201930132C240019284E780
:1022700010B5002903D1FFF739FE203002E0081C19
:10228000FFF734FE10BDC046054B10B5041C181EE8
:1022900005D0131C02200A1C211C00E000BF10BD49
:1022A00000000000084B10B5041C002B02D00021D8
:1022B00000E000BF054B1868836A002B00D09847E8
:1022C000201CFEF7BBFAC046000000005C2A00207C
:1022D0000E4B70B500251E1C0D4CE41AA410A5422F
:1022E00004D0AB00F35898470135F8E700F086F8C2
:1022F000084B00251E1C084CE41AA410A54204D06B
:10230000AB00F35898470135F8E770BD94480020BA
:102310009448002094480020A448002008B5034BAE
:10232000011C186800F024F808BDC0469048002041
:1023300030B50024944208D0035D651C0C5DA342B7
:1023400001D0181B02E02C1CF4E7002030BD002354
:1023500010B5934203D0CC5CC4540133F9E710BDEF
:10236000031C8218934202D019700133FAE77047B8
:1023700030B500293ED004390B68002B00DAC918AB
:102380001D4A1368141C002B02D14B60116031E010
:1023900099420DD208680A189A4203D11368C318EB
:1023A0000B6053684B60216024E08A4203D8131C01
:1023B0005A68002AF9D11D685C198C420BD1096852
:1023C000691858181960904214D110685268091899
:1023D00019605A600EE08C4202D90C23036009E0B8
:1023E00008680C18944203D11468526800190860F8
:1023F0004A60596030BDC04694520020F8B5C046CE
:10240000F8BC08BC9E467047F8B5C046F8BC08BC8E
:102410009E46704700000000000000000000000021
:102420002507002049070020F106002000000000D9
:10243000000000000000000000000000000000009C
:102440003508002000000000636F756C64206E6F1B
:10245000742070696E6F75740000000070696E6D95
:102460006170206D69732D6D6174636800000000F8
:1024700070696E6D6170206E6F7420666F756E642A
:1024800020666F72207065726970686572616C0099
:1024900070696E6D6170206E6F7420666F756E640A
:1024A00020666F722066756E6374696F6E0000003F
:1024B0003D1000205510002001120020291200209C
:1024C000C1100020B02400202C5100200C0000007E
:1024D00000400040010000000C00000000300040FF
:1024E000020000000C00000000400040030000005B
:1024F000070000000030004002000000150000004E
:102500000040004001000000FF000000FFFFFFFF4F
:102510000000000011000000004000400100000029
:102520001100000000300040020000001100000017
:10253000004000400300000019000000003000408F
:1025400002000000130000000040004001000000F5
:10255000FF000000FFFFFFFF000000004F6E6C79DE
:102560002038626974732053504920737570706FFE
:10257000727465640000000053504920666F726DEC
:102580006174206572726F7200000000120000001A
:102590000040004001000000120000000030004038
:1025A0000200000012000000004000400300000094
:1025B000080000000030004002000000140000008D
:1025C0000040004001000000FF000000FFFFFFFF8F
:1025D000000000001900000000400040030000005F
:1025E000000000000040004003000000FF00000069
:1025F000FFFFFFFF0000000000000000963007779B
:102600002C610EEEBA51099919C46D078FF46A70E6
:1026100035A563E9A395649E3288DB0EA4B8DC7906
:102620001EE9D5E088D9D2972B4CB609BD7CB17E86
:10263000072DB8E7911DBF906410B71DF220B06A56
:102640004871B9F3DE41BE847DD4DA1AEBE4DD6D66
:1026500051B5D4F4C785D38356986C13C0A86B6466
:102660007AF962FDECC9658A4F5C0114D96C066386
:10267000633D0FFAF50D088DC8206E3B5E10694C66
:10268000E44160D5727167A2D1E4033C47D4044BA6
:10269000FD850DD26BB50AA5FAA8B5356C98B24286
:1026A000D6C9BBDB40F9BCACE36CD832755CDF4506
:1026B000CF0DD6DC593DD1ABAC30D9263A00DE5136
:1026C0008051D7C81661D0BFB5F4B42123C4B35626
:1026D0009995BACF0FA5BDB89EB802280888055FA6
:1026E000B2D90CC624E90BB1877C6F2F114C685806
:1026F000AB1D61C13D2D66B69041DC760671DB01F4
:10270000BC20D2982A10D5EF8985B1711FB5B606C5
:10271000A5E4BF9F33D4B8E8A2C9077834F9000F05
:102720008EA8099618980EE1BB0D6A7F2D3D6D08A5
:10273000976C6491015C63E6F4516B6B62616C1C95
:10274000D83065854E0062F2ED95066C7BA5011BC5
:10275000C1F4088257C40FF5C6D9B06550E9B71265
:10276000EAB8BE8B7C88B9FCDF1DDD62492DDA1525
:10277000F37CD38C654CD4FB5861B24DCE51B53A45
:102780007400BCA3E230BBD441A5DF4AD795D83D45
:102790006DC4D1A4FBF4D6D36AE96943FCD96E3485
:1027A000468867ADD0B860DA732D0444E51D033365
:1027B0005F4C0AAAC97C0DDD3C710550AA41022775
:1027C00010100BBE86200CC925B56857B3856F2045
:1027D00009D466B99FE461CE0EF9DE5E98C9D929A5
:1027E0002298D0B0B4A8D7C7173DB359810DB42EE5
:1027F0003B5CBDB7AD6CBAC02083B8EDB6B3BF9A31
:102800000CE2B6039AD2B1743947D5EAAF77D29DBC
:102810001526DB048316DC73120B63E3843B64949C
:102820003E6A6D0DA85A6A7A0BCF0EE49DFF09939C
:1028300027AE000AB19E077D44930FF0D2A308870C
:1028400068F2011EFEC206695D5762F7CB676580BC
:1028500071366C19E7066B6E761BD4FEE02BD389BC
:102860005A7ADA10CC4ADD676FDFB9F9F9EFBE8E1C
:1028700043BEB717D58EB060E8A3D6D67E93D1A15C
:10288000C4C2D83852F2DF4FF167BBD16757BCA63C
:10289000DD06B53F4B36B248DA2B0DD84C1B0AAFDC
:1028A000F64A0336607A0441C3EF60DF55DF67A85C
:1028B000EF8E6E3179BE69468CB361CB1A8366BCEC
:1028C000A0D26F2536E2685295770CCC03470BBB3C
:1028D000B91602222F260555BE3BBAC5280BBDB23C
:1028E000925AB42B046AB35CA7FFD7C231CFD0B5DC
:1028F0008B9ED92C1DAEDE5BB0C2649B26F263ECCE
:102900009CA36A750A936D02A906099C3F360EEBDB
:102910008567077213570005824ABF95147AB8E29B
:10292000AE2BB17B381BB60C9B8ED2920DBED5E57B
:10293000B7EFDC7C21DFDB0BD4D2D38642E2D4F1CB
:10294000F8B3DD686E83DA1FCD16BE815B26B9F65B
:10295000E177B06F7747B718E65A0888706A0FFFBB
:10296000CA3B06665C0B0111FF9E658F69AE62F87B
:10297000D3FF6B6145CF6C1678E20AA0EED20DD77B
:102980005483044EC2B30339612667A7F71660D09B
:102990004D476949DB776E3E4A6AD1AEDC5AD6D9DB
:1029A000660BDF40F03BD83753AEBCA9C59EBBDEFB
:1029B0007FCFB247E9FFB5301CF2BDBD8AC2BACAAB
:1029C0003093B353A6A3B4240536D0BA9306D7CD1B
:1029D0002957DE54BF67D9232E7A66B3B84A61C43B
:1029E000021B685D942B6F2A37BE0BB4A18E0CC3FB
:1029F0001BDF055A8DEF022D0000000000000000D3
:102A000000000000000000000000000000000000C6
:102A100000000000000000000000000000000000B6
:102A200000000000000000000000000000000000A6
:102A30000000000000000000000000000000000096
:102A40000000000000000000000000000000000086
:102A5000000000000000000043000000304800209B
:042A60000000000072
:082A6400BCD6FF7F0100000059
:102A6C0000000000106800200468002005680020A9
:102A7C00FFFFFFFF10780020016800200268002093
:102A8C000368002088130000010001000100000011
:102A9C0000000000F8290020182A0020382A002005
:102AAC00000000000000000000000000000000001A
:102ABC00582A002000000000000000000000000068
:102ACC0000000000000000000000000000000000FA
:102ADC0000000000000000000000000000000000EA
:102AEC0000000000000000000000000000000000DA
:102AFC0030480020E900002011060020851B002032
:082B0C00291C0020C10000207B
:0400000520001D8931
:00000001FF
