:020000042000DA
:100000000000011039250020692500206B25002003
:100010006D2500206F2500207125002000000000C4
:100020000000000000000000000000007325002018
:10003000752500200000000077250020792500208C
:100040007B2500207B2500207B2500207B250020B0
:100050007B2500207B2500207B2500207B250020A0
:100060007B2500207B2500207B2500207B25002090
:100070007B2500207B2500207B2500207B25002080
:100080007B2500207B2500207B2500207B25002070
:100090007B2500207B2500207B2500207B25002060
:1000A0007B2500207B2500207B2500207B25002050
:1000B0007B2500207B2500207B2500207B25002040
:1000C0007B2500207B2500207B2500207B25002030
:1000D0007B2500207B2500207B2500207B25002020
:1000E0007B2500207B2500207B2500207B25002010
:1000F0007B2500207B2500207B2500207B25002000
:100100007B2500207B2500207B2500207B250020EF
:100110007B2500207B2500207B2500207B250020DF
:100120007B2500207B2500207B2500207B250020CF
:100130007B25002000000000000000007B2500203F
:100140007B2500207B2500207B2500207B250020AF
:100150007B2500207B2500207B2500207B2500209F
:100160007B2500207B2500207B2500207B2500208F
:100170007B2500207B2500200000000000000000FF
:100180007B2500207B25002010B5054C237833B952
:10019000044B13B10448AFF300800123237010BD5A
:1001A0009850002000000000D42C0020084B10B50F
:1001B0001BB108480849AFF300800848036803B939
:1001C00010BD074B002BFBD0BDE81040184700BF07
:1001D00000000000D42C00209C50002090500020F3
:1001E00000000000154B002B08BF134B9D46A3F5E4
:1001F000803A00218B460F461348144A121A02F027
:1002000012FA0F4B002B00D098470E4B002B00D05A
:1002100098470020002104000D000D48002802D05E
:100220000C48AFF3008002F0BDF92000290000F077
:1002300029FC02F0A3F900BF000008000000011033
:10024000000000000000000098500020845A0020A8
:10025000000000000000000070B40C4E33681970FC
:1002600033680A0A5A7051B103460844C3F10201C7
:10027000CA1813F8015B34688342A554F8D1044BC3
:100280001B6801221A7070BC704700BF105000201C
:10029000085000202DE9F04F87B000AFDD2826D0B0
:1002A000DE2815466AD0E12800F0A380E22800F09D
:1002B0007D81E32800F0AC81E42800F05381E5283B
:1002C00000F0DA81E62800F0C280E72840F08D8057
:1002D00007F10B01C24807F10D0201F005F8FB7AA6
:1002E0003B7307F10C000921FFF7B6FF7DE091F8A1
:1002F00002B091F803804B780C788D790A7991F8E7
:1003000007C0087A91F805E0DFF8E4A2DFF8F89278
:10031000B44E4FEA0B4141EA08210A43290442EA5C
:10032000036341EA0C221D0B0243013542EA0E62CF
:10033000EDB2CAF80030C9F800203470DFF8CC8282
:10034000002C6FD04FF40823C8F8003065B10024AA
:10035000D8F8000000EB0430013401F04BFBA5425B
:10036000F6D83478002C63D0012C00F0E5809E4B49
:1003700000221C371A60BD46BDE8F08F002A00F04D
:10038000EE80DFF864A2994EDAF800304A1EE818D1
:10039000C3F30A01013312F8014F74548342CAF8BF
:1003A0000030F5D1EBB25FEA15297B6015D0DFF89C
:1003B0003CB2DFF858820024D8F800305B1B03EB16
:1003C000042359464FF4807218440134934401F0D9
:1003D000D1FAA145DAF80000EED17B68002B40F09D
:1003E0009B80834B1B68834254D01C37BD46BDE8BD
:1003F000F08F0C787D4B0121E207197000F1D1805C
:10040000A30704D501210A46754800F0EFFF07F164
:100410001800012100F80C1DFFF71EFF1C37BD4618
:10042000BDE8F08F4FF40043C8F80030002D8ED1A6
:100430006B480021012200F0BFFF6948DAF8001084
:10044000D9F80020012300F0C5FF34788CE7694D0E
:10045000694C6B68E968694A1B040B606368E16872
:100460001B040B60916853680A6807F118001A4270
:1004700014BF0123002300F80C3D0121FFF7ECFE1F
:10048000022000F0A7FAEB686A681A60E368626805
:100490001A60AAE75A4C4FF0FF332360030A5FFA51
:1004A00080FB7B601ED07B68DFF86081554D4FEA92
:1004B000032A4FF00009D8F800004C494FF480722D
:1004C00048440E4601F016FA2268304601210E44D7
:1004D00001F0A4FAAE4202462060F6D109F5807917
:1004E000D145E8D1BBF1000F40F0B08022683D4B10
:1004F0001B787BB3012B40F0CA80394B42499B6A81
:100500000B609A4207F1180083D0002300F80C3DDD
:100510000121FFF7A1FE68E7DFF8F0807A68D8F8DC
:1005200000304FEA09210B445D1B3144284401F09F
:1005300021FADAF8000054E722462948002100F0A9
:1005400055FFDAF80010D9F800202548234600F0BE
:100550005BFF0CE7224B2C491B6A0B60D1E7224B57
:1005600018683EE70B781E48012A8CBF4A1C0022FF
:10057000194600F0ABFEEB1D23F007036C46ADEB14
:10058000030D0DF10102164807F10C0100F0ACFE5D
:100590003B7B8DF8003068462946FFF75DFEA54697
:1005A00023E70F480A4600F007FF29E7002079609B
:1005B00001F020FA79682A46002001F0DBF9EB1DF2
:1005C00023F007036C46ADEB030D69462A46002075
:1005D00001F090F968462946FFF73EFEA54604E77C
:1005E000C8580020BC500020C4580020C050002033
:1005F000B85000202C5900203C5900201C590020E4
:100600000C500020C0510020B4500020C0580020E1
:100610002048796000F076FE79681E482A4600F08E
:1006200081FE1C4800F034FFEB1D23F007036C46ED
:10063000ADEB030D694600222B46164800F08AFEFA
:1006400068462946FFF708FEA546CEE6124B134939
:1006500018687B685A4600EB03200D4601F04AF902
:100660002268AB44284601210D4401F0D7F95D45CD
:1006700002462060F6D13AE707F10C01054800F088
:100680001FFE07F10C000821FFF7E6FDADE6044B65
:100690001B6836E7C8580020C0580020C050002012
:1006A000B450002008B504480C21FFF7D5FD0348DD
:1006B000BDE8084000F042BF107AFF1FC858002074
:1006C00010B50D4C23681B78012B00D010BD0B4AD0
:1006D0000B4B12681B680B491B78127808680A4993
:1006E0000078096803EB022292B2FFF7D3FD23687A
:1006F00000221A7010BD00BF1450002004500020CA
:100700001C500020185000200050002010B5114847
:1007100000F0D2FD104B002418463F2102221C801D
:100720005C609C60DC6000F0F9F80C4B1F211846FF
:100730001C805C609C60DC6000F004F9084B1C804D
:100740005C609C60DC601C211846BDE8104000F035
:10075000F9B800BFC85800201C5900202C590020AF
:100760003C59002030B4114CA368A568B5F1006F66
:1007700009D0A5680E4CA5421A4604D0103042F8A4
:10078000201030BC70470B4A03F5C47553F8044B76
:1007900042F8044FAB42F9D14FF00052034B1030F6
:1007A0009A6042F8201030BC704700BF00ED00E0B6
:1007B00000800008FCFFFF1F1648836803F00C034D
:1007C000082B25D14368416813F4800F436818BF94
:1007D000114801F03F020CBF0F49B0FBF2F1C3F327
:1007E000881308BFB1FBF2F101FB03F2094B5B6810
:1007F000C3F3014301335B00B2FBF3F3054A07483F
:1008000092680749C2F30312825CD3400B607047C1
:10081000014BF3E7003802400024F400502600208A
:1008200020500020F0B595B01B4A1C4B116C41F0D4
:1008300080511164126C02F080520192019A1A6880
:1008400022F480421A601B6803F48043029302245E
:1008500001234FF4A87107224FF48006102508A841
:10086000089309930F96109511911392029F0E947D
:1008700012940D2601F026FA00254FF4A0524FF4F1
:10088000805303A8052104940396059506920793C7
:1008900001F0D8FB15B0F0BD0038024000700040F8
:1008A00070B5154C154E2368154D16491648002293
:1008B00043F001032360A260236823F0847323F4D0
:1008C00080332360666023684FF0005623F4802352
:1008D0002360E260AE60086001F0C6F8FFF7A2FF97
:1008E000FFF76AFF236A43F008032362236A23F0B9
:1008F0000803236270BD00BF00380240103000249E
:1009000000ED00E020500020006CDC0272B6FEE733
:100910000FB408B5012001F031FE00BF70B50D46DF
:100920001646044600F0E8F8013509D020460021BB
:1009300000F000F920463146BDE8704000F0F6B8FE
:1009400070BD00BF38B50D46044600F0D5F801353E
:100950000DD06368E2681B0420461360012100F09B
:10096000E9F820460021BDE8384000F0DFB838BD86
:1009700070B50D461646044600F0BEF801350FD09E
:100980006368E26856B120460121136000F0D2F896
:1009900020460021BDE8704000F0C8B81B04F2E713
:1009A00070BD00BF08B500B9FEE7FFF7AFFFFBE77A
:1009B000F8B5044600F0E8FB002506460F4600F0B7
:1009C000E3FB801B61EB0701A94208BFA042F6D3FD
:1009D000F8BD00BF4FF47A7303FB00F0FFF7E8BFE8
:1009E00010B5431C044619D0B1F90030581C04D18D
:1009F0000FE031F90C3F5A1C0BD09C42F9D1204634
:100A0000896800F00BFA20460021BDE8104000F094
:100A100027BA0348BDE81040FFF77ABF10BD00BFFA
:100A20006026002088420AD0421C09D0013106D03D
:100A300008B50448FFF76CFF4FF0FF3008BD704762
:100A40000846704774260020421C0FD008B5B1F943
:100A500000305A1C04D10AE031F90C3F5A1C06D070
:100A60009842F9D14868411C01D008BD704703483D
:100A7000FFF74EFF4FF0FF30F7E700BF882600205A
:100A8000704700BF08B500F019F9FFF7F9FFBDE89E
:100A9000084000F0DFBF00BF70B50368DB680546A3
:100AA00098476B680DE02A681C6853689847201ABD
:100AB00000280EDC6B685968CA685A606B681A684F
:100AC00082B95B68002BEED12B68BDE870409B6853
:100AD00018476A682B6852681B69D2E90001BDE8B3
:100AE0007040184788689047DBE700BF0148FFF770
:100AF000D3BF00BFDC26002070B505464B1C0C465A
:100B0000298012D0C1F3031000F0E0F8002106465E
:100B1000204600F083F904F00F04012306F11002CF
:100B2000A34018366B60AA60EE6070BDB0F900009B
:100B300000F096B90129B0F9000018BF002100F0BB
:100B40006DB900BF70B52A4B2A4C586A23601A69E8
:100B5000D5070AD56FF0010227491A61D1E90023B0
:100B6000013243F10003C1E90023214B1A699107C7
:100B70001FD56FF002021A61204E214B21491860E7
:100B8000D6E900230D68521B63F10003002B08BF58
:100B90000B2AC6E900230A6021D3012B08BF002AD3
:100BA00035BF01304FF0FF3380180B6000F0D4FAEE
:100BB00023681A69520709D56FF00402124E1A61B0
:100BC0005D6A3368EB1AB3F57A7F00D270BD00F02E
:100BD00061FF2368356005F57A759D6370BD0B4D27
:100BE00001232B70FFF782FF00232B702368E0E7BF
:100BF000000C0040485A0020005A0020B059002044
:100C0000085A0020BC59002054590020B85900202F
:100C100030B583B0224B234C1A6C234942F00802B2
:100C20001A641A6C02F008020192019A1A6A42F0E0
:100C300008021A621A6A22F008021A624FF0FF33A1
:100C40002160E36001F058FB184B4000A3FB002338
:100C50009B0C0025013B204663602561A560656112
:100C600001F04EFC32201249FFF77CFD114B4FF48E
:100C700080225A602946204601F0B2FB204604211A
:100C800001F0AEFB23680C495A6A0A6002F57A72D9
:100C90009A63DA68284642F00402DA6003B030BD95
:100CA00000380240485A0020000C004083DE1B43FD
:100CB000450B002000E100E05459002008B5FFF783
:100CC0007BFDBDE8084000F0CFBE00BF00B58BB093
:100CD000082800F28580DFE800F013212F3D4B59F2
:100CE00067750500424B43481A6B42F480721A63E1
:100CF0001B6B03F480730993099B0BB05DF804FB35
:100D00003B4B3D481A6B42F001021A631B6B03F028
:100D100001030193019B0BB05DF804FB344B374892
:100D20001A6B42F002021A631B6B03F00203029378
:100D3000029B0BB05DF804FB2D4B31481A6B42F05F
:100D400004021A631B6B03F004030393039B0BB0B1
:100D50005DF804FB264B2B481A6B42F008021A631D
:100D60001B6B03F008030493049B0BB05DF804FBBA
:100D70001F4B25481A6B42F010021A631B6B03F0DD
:100D800010030593059B0BB05DF804FB184B1F483F
:100D90001A6B42F020021A631B6B03F020030693C8
:100DA000069B0BB05DF804FB114B19481A6B42F01F
:100DB00040021A631B6B03F040030793079B0BB0C1
:100DC0005DF804FB0A4B13481A6B42F080021A6369
:100DD0001B6B03F080030893089B0BB05DF804FBCA
:100DE0000D48FFF795FD00200BB05DF804FB00BF38
:100DF000003802400020024000000240000402408F
:100E000000080240000C02400010024000140240A2
:100E100000180240001C02403828002030B587B07E
:100E20000C460546C0F30310FFF750FF05F00F0511
:100E300004F00F01094A0123AB40019352F82150FD
:100E40000295C4F302120323C4F3C31401A903924D
:100E50000594049300F03EFE07B030BD0428002046
:100E600038B50346C0F303100D4603F00F04FFF737
:100E70002DFF022DC2684FEA44034FF0030198BFD3
:100E80009D4001FA03F322EA0303C360C16888BFEF
:100E900000250D43C56038BD10B5114C03682360B3
:100EA0001A6822F040021A6083690269E361C3682C
:100EB00063610023A360816862600722A362E2622B
:100EC0002161416823624269A26120466362E16058
:100ED00001F02CFA2268136843F04003136010BD40
:100EE000585900202DE9F04F87B004460F460846B8
:100EF0004049BDF9405090461E46FFF7A5FD3E49CA
:100F000001904046FFF7A0FD3C4981463046FFF77F
:100F10009BFD3B4983462846FFF796FD019B4946CA
:100F200082461846FFF77EFD514681465846FFF738
:100F300079FD01464846FFF775FD324B2060984227
:100F40004AD0314B98423AD0304B98422BD0294965
:100F50003846FFF745FD40462749FFF741FD30463B
:100F60002649FFF73DFD002338226360A360E3605C
:100F70006B1CA4F81C80E78326846584A26108D1D9
:100F80004FF4007363612046FFF786FF07B0BDE8AA
:100F9000F08F28461A49FFF723FD2046FFF77CFF14
:100FA00007B0BDE8F08F03F5FE331A6C42F400423F
:100FB0001A641B6C03F400430593059BC7E703F514
:100FC00000331A6C42F480421A641B6C206803F4EC
:100FD00080430493049BB7E703F584335A6C42F4CF
:100FE00080525A645B6C206803F480530393039B24
:100FF000A7E700BF80270020E42600202C27002040
:10100000C82700200030014000380040003C00406C
:1010100010290CBF4FF400610021012A41601FD04C
:10102000022A19D0AAB1022101228160C26042695C
:10103000B2F5007F05D0002B14BF00224FF48022B0
:101040004261002B14BF00234FF482730361FFF74A
:1010500023BF8260C260EAE700218260C160E6E7E8
:101060000021C2608160E2E70368264A934206D00D
:10107000254A23F48063934201D0FFF70DBF234B31
:1010800099422BDDA1F5B722D83A9A422DD9A1F584
:1010900037231F4AA3F5D873934223D9A1F5B71379
:1010A0001C4AA3F55873934223D9A1F537131A4A62
:1010B000A3F5D863934222D9A1F5B703174AA3F544
:1010C0005863934218D9164BA1F53701A1F5D851B1
:1010D000994294BF082300238361CEE738238361BC
:1010E000FFF7DABE28238361C7E730238361FFF768
:1010F000D3BE20238361C0E710238361BDE718239B
:101100008361BAE70030014000380040D7B80500DD
:10111000AF710B005FE31600BFC62D007F8D5B0033
:10112000FF1AB70030B403680A4A1D4600E003689E
:101130009C681360A407FAD589B2E96003681C466D
:1011400000E0036899681360CB07FAD5E06830BC0B
:10115000704700BF58590020044B054A136058637C
:10116000DA6842F00202DA60704700BF000C00400B
:10117000C0590020034B186800B1704701221A6063
:10118000FFF746BDFC590020F8B5184B186818B990
:1011900001221A60FFF73CFDDFF860E0144FDEE942
:1011A0000001796A00220346521843F1000301E06E
:1011B00002460B46DEE900017E6ADFF834C00024F7
:1011C0000546A01945F100018B4208BF8242EFD2CB
:1011D000084B1B784BB1084BDCF824201B689A4263
:1011E00003D210F1FF3041F10001F8BDFC5900209D
:1011F000000C0040B8590020085A0020005A002076
:1012000010B582B0CDE90001FFF7BEFFDDE9002394
:10121000994208BF90421CD2DDE90023154C121AF6
:1012200063EB0103C4E90023D4E90023012B08BFC9
:10123000002A10D2D4E900230F4B10491A601A6813
:101240000F4B0B60013210445863DA6842F002021F
:10125000DA6002B010BD0949094B074A0B604FF034
:10126000FF3111605863DA6842F00202DA6002B0BE
:1012700010BD00BFB0590020BC590020C05900204B
:10128000000C0040034A044B1360DA6822F00202AB
:10129000DA607047C0590020000C0040044A054B3A
:1012A00013601A69920744BF6FF002021A61704717
:1012B000C0590020000C0040002280F848207047F0
:1012C000034608220846194601F0A2B981634AB1D3
:1012D00000F13B03013A433012F8011F03F8011FEC
:1012E0008342F9D1704700BF836B0B704AB100F1A4
:1012F0003B03013A433013F8011F02F8011F8342F8
:10130000F9D1704710B50123044680F848304FF4F6
:10131000804000F06FFB00224FF0FF33E264236552
:1013200010BD00BFF8B5C66C9519B5F5007F10D893
:10133000044606F580400C3015460F4600F01AFBB7
:10134000E36C226D2B443846E364294600F066FBCB
:101350002065F8BD10B50069D418844201D9002079
:1013600010BD02F5A0400C301A4600F0C3FA01206F
:1013700010BD00BF38B500F1180405462C214FF010
:10138000FF32204600F04AFB68644FF4005000F042
:1013900031FB214630224FF4005000F0EBFA4FF4BD
:1013A000405000F027FB21464FF440503022BDE86A
:1013B000384000F0DFBA00BF836921B143F0010378
:1013C00083612AB9704723F001038361002AF9D0B1
:1013D000FFF7D0BF10B4C161026213B95DF8044BCE
:1013E00070475DF8044BFFF7C5BF00BF836921B1AB
:1013F00043F0020383612AB9704723F0020383613B
:10140000002AF9D0FFF7B6BF10B44162826213B967
:101410005DF8044B70475DF8044BFFF7ABBF00BFAE
:1014200070B590B005690C3513D00026402D2C46C0
:1014300028BF4024224606F5A040694600F05AFA2B
:1014400006F580402246694600F094FA2D1B26449A
:10145000ECD110B070BD00BF70B590B005690C350F
:1014600013D00026402D2C4628BF4024224606F5E6
:101470008040694600F03EFA06F5A04022466946E3
:1014800000F078FA2D1B2644ECD110B070BD00BFDF
:1014900038B5C368C26C026105460133DBB245F85A
:1014A0000C3F04460821226D284600F0B7FA294671
:1014B0000C2260614FF4804000F05CFA4FF4A040D1
:1014C00000F098FA2046FFF7C7FF002384F8483061
:1014D00038BD00BF2DE9F04194B0084688460C2283
:1014E00001A900F007FA029DB5F5007F04D94FF07D
:1014F000553014B0BDE8F081EDB10C264FF0FF3748
:10150000402D2C4628BF4024224606EB080004A9A3
:1015100000F0F0F93A4604A8214600F07FFA2D1BAE
:1015200026440746ECD101A83A46082100F076FA95
:1015300014B0BDE8F0814FF0FF37F4E770B58CB020
:10154000044601460C22002000F0D4F92046082170
:101550004FF0FF3200F062FAA368834204D02046C5
:101560003021082201F05FF804F1180529463022E5
:101570004FF4005000F0BEF928462C214FF0FF3206
:1015800000F04CFA636C834263D0294630224FF45A
:10159000405000F0AFF928462C214FF0FF3200F008
:1015A0003DFA636C83426CD00021A161E16121624C
:1015B0006162A162E16204F13000082201F033F8B7
:1015C00004F10C0529460C224FF4804000F092F9FA
:1015D00020464FF48041FFF77DFF6369834212D0BC
:1015E00029460C224FF4A04000F084F920464FF425
:1015F000A041FFF76FFF6369834222D00023E360BD
:1016000023610CB070BD2369B3F5007FE8D80C22CC
:1016100069464FF4A04000F06DF94FF4A041204618
:10162000FFF758FF294606460C22684600F0E0FF07
:1016300010B9029BB3422FD02046FFF70DFF0CB02C
:1016400070BD2369B3F5007FD8D82046FFF7E8FEC8
:10165000D7E7694630224FF4405000F04BF9684616
:101660002946302200F0C4FF0028A9D04FF4405092
:1016700000F0C0F9294630224FF4405000F07AF9CA
:101680009EE74FF4005000F0B5F9294630224FF4A0
:10169000005000F06FF993E7019BB3F5007FB0D9DC
:1016A000CAE700BF10B5064C06486368E2681B0431
:1016B00013600621FFF736FDE36862681A6010BD0B
:1016C000345A0020105A002010B5094C6368E268B3
:1016D00008481B0413600521FFF724FD0548FF217E
:1016E000FFF720FDE36862681A60C307EED410BDFF
:1016F000345A0020105A002070B5154D20F47F6434
:101700000E46FFF7E1FFFFF7CDFF6B68EA6811486F
:101710001B04136024F00F042021FFF703FDC4F322
:1017200007410C48FFF7FEFC210A01F0F0010948CF
:10173000FFF7F8FC07480021FFF7F4FCEB686A6844
:101740001A6006B970BDBDE87040FFF7BDBF00BFAD
:10175000345A0020105A00202DE9F041194E054658
:101760000C4617469846FFF7AFFFFFF79BFF7368DD
:10177000F26815481B0413600221FFF7D3FCC5F380
:1017800007411148FFF7CEFCC5F307210E48FFF7CC
:10179000C9FCE9B20C48FFF7C5FCE51937B114F8EC
:1017A000011B0948FFF7BEFCAC42F8D1F368726830
:1017B0001A60B8F1000F01D0FFF786FF3846BDE888
:1017C000F08100BF345A0020105A00202DE9F0416A
:1017D0001A4E05460C4617469846FFF775FF736884
:1017E000F26817481B0413600B21FFF79BFCC5F33D
:1017F00007411348FFF796FCC5F307211048FFF790
:1018000091FCE9B20E48FFF78DFC0D48FF21FFF770
:1018100089FCE5193FB10A48FF21FFF783FC04F872
:10182000010BAC42F7D1F36872681A60B8F1000F8F
:1018300001D0FFF749FF3846BDE8F081345A002057
:10184000105A002038B5104C104D6368E2681B0434
:1018500013609F212846FFF765FCFF212846FFF70C
:1018600061FC0B4BFF2118702846FFF75BFC094B0E
:10187000FF2118702846FFF755FC0749E3686268A6
:1018800008701A6038BD00BF345A0020105A00207A
:101890000C5A00200F5A00200D5A002010B582B0BB
:1018A000104C114826210122FFF762F84FF0FF3358
:1018B00020460093232122228123FFF713FB0022DD
:1018C000134620460821FFF7A3FB20460749FFF7F0
:1018D000CBFB074B01221A7002B0BDE81040FFF7A6
:1018E000B1BF00BF105A0020345A002000B4C40415
:1018F0000E5A00202DE9F0471D4B1B7880460C4600
:10190000174693B35FFA88F3C3F58075BD4228BFCD
:101910003D46C5EB070A2A46404601232146FFF70C
:1019200055FF4FEA1A234FEA0329A844C9EB0A0AD4
:10193000254473B12C46C4EB08064D444FF4807225
:10194000A019214601231444FFF740FFAC42F5D112
:10195000C844BAF1000F05D040462946524601233B
:10196000FFF734FF3846BDE8F087FFF797FFC9E778
:101970000E5A00202DE9F0471D4B1B7880460C467F
:10198000174693B35FFA88F3C3F58075BD4228BF4D
:101990003D46C5EB070A2A46404601232146FFF78C
:1019A000DBFE4FEA1A234FEA0329A844C9EB0A0ACF
:1019B000254473B12C46C4EB08064D444FF48072A5
:1019C000A019214601231444FFF7C6FEAC42F5D10D
:1019D000C844BAF1000F05D04046294652460123BB
:1019E000FFF7BAFE3846BDE8F087FFF757FFC9E7B3
:1019F0000E5A0020084B1B7813B10121FFF77CBE63
:101A000000B583B00190FFF749FF0198012103B0B1
:101A10005DF804EBFFF770BE0E5A0020D24381B18F
:101A200010B4094C014410F8013B5340DBB288422A
:101A300054F8233083EA1222F5D1D0435DF8044BE9
:101A40007047D043704700BF5C280020704700BF3C
:101A5000704700BF08B5FFF7F9FFFEF723FEFFF759
:101A6000F7FFFEF72DFEFAE708B5094B1A6842F4B6
:101A700000721A601A6842F480621A60032000F053
:101A800017F80F20FFF7C4F800F01AF9002008BD7E
:101A9000003C0240024A136801331360704700BFE4
:101AA000445A0020014B1868704700BF445A002078
:101AB000074AD1684FF6FF030B4043F0BF6300F0C5
:101AC000070043F4003343EA0023D360704700BFAC
:101AD00000ED00E02DE9F04782B06E4FDFF8D4E171
:101AE0006D4EDFF8D4C1DFF8D4A1002203E001324B
:101AF000102A00F0AD8001230C68934003EA04082B
:101B00009845F4D14C6824F01003022B12D1D5086B
:101B100000EB850502F007042B6AA4004FF00F09C3
:101B200009FA04F923EA09090B69A34049EA030306
:101B30002B624C68D0F8009055000323AB4004F0B2
:101B40000304DB43AC4003EA090944EA09040460E6
:101B50004C6824F01004013C012C12D8846803EA7C
:101B60000409CC68AC4049EA040484604C68D0F8AD
:101B70000490C4F30014944029EA080949EA0404D3
:101B80004460C46823408C68AC401C43C4604B680C
:101B9000DD00ACD57B6C43F480437B647B6C22F02E
:101BA000030505F1804503F4804305F59C35019359
:101BB00002F00309019BAC684FEA89090F2303FA7D
:101BC00009F3704524EA030445D0604545D05045EB
:101BD00047D0324B984248D0314B984249D0314B94
:101BE00098424AD0304B98424BD0304B98424CD020
:101BF0002F4B98420CBF0823092303FA09F3234310
:101C0000AB604C6833686FEA0805E40354BF2B40AF
:101C100048EA030333604C687368A40354BF2B4045
:101C200048EA030373604B68B468DB0254BF2C407E
:101C300048EA0404B4604C68F368A40202F10102AB
:101C400054BF2B4048EA0303102AF3607FF453AFDC
:101C500002B0BDE8F0870023D1E7012303FA09F3BE
:101C6000CDE7022303FA09F3C9E7032303FA09F3D3
:101C7000C5E7042303FA09F3C1E7052303FA09F3CF
:101C8000BDE7062303FA09F3B9E7072303FA09F3CB
:101C9000B5E700BF00380240003C0140000C0240A4
:101CA000001002400014024000180240001C0240D4
:101CB00000200240000002400004024000080240F0
:101CC000704700BF2DE9F04182B00368DE0704468B
:101CD00037D5A8498A6802F00C02042A00F0F78080
:101CE0008A6802F00C02082A00F0ED80A24BA14D98
:101CF00000221A70FFF7D6FE41F28836074605E04B
:101D0000FFF7D0FEC01BB04200F2CA802B689903D7
:101D1000F6D4994B22791A706368002B00F0168173
:101D2000FFF7C0FE934D074641F2883605E0FFF706
:101D3000B9FEC01BB04200F2B3802B689A03F6D5FF
:101D400023689F0730D58B4B9A6812F00C0F00F078
:101D5000AF809A6802F00C02082A00F0A580E368C0
:101D6000002B00F0E280854B824D01221A60FFF7C4
:101D700099FE064605E0FFF795FE801B642800F2F9
:101D80008F802B687B4A9807F5D51168F82393FA62
:101D9000A3F3B3FA83F32069DBB221F0F801984092
:101DA00040EA0103136023681A0721D4580735D489
:101DB000A369CBB16F4DAA6802F00C02082A7ED04D
:101DC000022B6F4B4FF000021A6000F0CF80FFF73C
:101DD00069FE2C46054604E0FFF764FE401B6428BC
:101DE0005ED823689B01F7D4002002B0BDE8F081E3
:101DF0006369002B75D0634B5E4D01221A60FFF7BB
:101E000051FE064604E0FFF74DFE801B642847D8CC
:101E10006B6F9B07F7D523685807C9D5554B5A4DAB
:101E20001A6C42F080521A641B6C03F080530193C9
:101E3000019B2B6843F480732B60FFF733FE06464B
:101E400004E0FFF72FFE801B642829D82B68D905F2
:101E5000F7D54E4B474D00221A70FFF723FE41F293
:101E60008836074604E0FFF71DFEC01BB04217D8B6
:101E70002B6F9A07F7D4454B227A1A70A368002B70
:101E800000F0CB80FFF70EFE3A4D074641F2883650
:101E90002B6F9B078CD4FFF705FEC01BB042F7D910
:101EA000032002B0BDE8F0815B685E023FF557AFEA
:101EB000304B1B689D0724D5E368012B21D00120FE
:101EC00002B0BDE8F0814A6855027FF50FAF294A9C
:101ED000126890037FF535AF6268002A7FF431AF56
:101EE000EDE7284A234D1360FFF7DCFD064604E0CA
:101EF000FFF7D8FD801B6428D2D86B6F9F07F7D4FB
:101F000089E71C48F823026893FAA3F3B3FA83F332
:101F10002169DBB222F0F802994041EA0203036032
:101F200023681A077FF542AF62E7144A114D136028
:101F3000FFF7B8FD064604E0FFF7B4FD801B6428F8
:101F4000AED82B689907F7D423682DE7FFF7AAFDD1
:101F5000084D074641F2883604E0FFF7A3FDC01B99
:101F6000B0429DD82B689B03F7D4E9E6FFF79AFDB2
:101F7000064612E0003802400238024000004742A4
:101F800060004742800E47420070004070380240B7
:101F9000FFF788FD801B642882D82B68274A9901A7
:101FA000F6D447F6C07C9CFAACFCBCFA8CFC4FF42F
:101FB000403191FAA1F1B1FA81F14FF0706696FAD1
:101FC000A6F6B6FA86F6A36A606AD4F82080D4F83A
:101FD0001CE0E76A1A4D5FFA8CF45B08C9B2A040B6
:101FE00048EA0E0E013BF4B24EEA00008B40034378
:101FF00007FA04F10B430121536029601446FFF7EF
:1020000051FD054605E0FFF74DFD401B64283FF6F6
:1020100047AF23689A01F6D5E6E6FFF743FD074D83
:10202000074641F288362B6F98077FF5C1AEFFF760
:1020300039FDC01BB042F6D932E700BF003802407C
:10204000600047422DE9F0417D4A136803F00F0319
:102050008B420C46054609D2CBB21370136803F0CD
:102060000F038B425AD00120BDE8F08103689A0724
:1020700007D5744983688A6822F0F00213438B60A5
:102080000368DF0727D56B68012B7BD09A1E012AD6
:102090006C4A126840F289809107E4D5694EB268B3
:1020A00022F003021343B360FFF7FCFC6B68012BC3
:1020B00007467ED0022B00F08A80032B67D041F2C6
:1020C000883804E0FFF7EEFCC01B404567D8B368D2
:1020D00013F00C0FF6D15A4BE2B21A701B6803F0E2
:1020E0000F03A342BFD12B685A0707D55549EB68A8
:1020F0008A6822F4E05213438B602B681B0707D5D4
:10210000504A2969936823F4604343EAC10393600A
:102110000F20FEF77DFD0020BDE8F08103689F07DA
:1021200007D5484983688A6822F0F00213438B6020
:102130000368DE07D8D56B68012B56D09A1E012A9A
:10214000404A12682ED991078DD53E4CA26822F0E4
:1021500003021343A360FFF7A5FC6B68012B06463F
:1021600048D0022B54D0032B60D041F2883704E0D2
:10217000FFF798FC801BB84211D8A36813F00C0F2E
:10218000F6D1B0E72F4A1268960387D46BE741F285
:102190008834B368FFF786FCC01BA042F9D903203E
:1021A000BDE8F0819001D0D45DE790013FF576AFB6
:1021B00059E741F2883804E0FFF774FCC01B404542
:1021C000EDD8B36803F00C03042BF5D183E741F29B
:1021D000883804E0FFF766FCC01B4045DFD8B368D1
:1021E00003F00C03082BF5D175E7164A1268940327
:1021F000ABD438E741F2883704E0FFF753FC801B8B
:10220000B842CCD8A36803F00C03042BF5D16AE7DD
:1022100041F2883704E0FFF745FC801BB842BED886
:10222000A36803F00C03082BF5D15CE741F2883575
:10223000A368FFF737FC801BA842F9D9AFE700BFBE
:10224000003C0240003802401B498B6803F00C033D
:10225000082B2FD130B44A684D684B6802F03F0418
:10226000690247F6C07292FAA2F2B2FA82F247F617
:10227000C070D2B200EA030020FA02F04ABF0F4950
:102280000E4AB1FBF4F20C4958BFB2FBF4F202FB68
:1022900000F34FF44032486892FAA2F2B2FA82F2A6
:1022A00000F44030D2B2D0400130400030BCB3FB2B
:1022B000F0F0704701487047003802400024F400F5
:1022C00008B5FFF7C1FF094AF023926893FAA3F318
:1022D000B3FA83F302F0F002DBB222FA03F304490B
:1022E000044ACB5CD840106008BD00BF00380240F3
:1022F0005C2C00202050002008B5FFF7E1FF084AC1
:102300004FF4E053926893FAA3F3B3FA83F302F421
:10231000E052DBB222FA03F3024AD35CD84008BD94
:10232000003802405C2C0020704700BF002853D0CA
:102330002DE9F04190F85130804603F0FF02002B68
:1023400045D0D8F80020022388F85130136823F0D4
:1023500040031360D8F80800D8F80470D8F80C606F
:10236000D8F81050D8F81440D8F81C10D8F820200D
:10237000D8F8283007433E4335432C4321430A43D2
:102380001343D8F8182002F40070D8F80020034353
:102390001360B8F81A20D8F82430D8F8001002F0EA
:1023A000040213434B60D8F80030D8F82C201A618F
:1023B000D8F80010CB69002223F400630124CB611C
:1023C000C8F8542088F851401046BDE8F08180F8E4
:1023D0005020FFF7A9FFB4E701207047704700BF06
:1023E00030B403680E4D1C6A01228A4024EA0204BC
:1023F0001C62196A0A431A620368AB4209D0094A8F
:10240000934206D01A6842F001021A60002030BCE4
:1024100070475A6C42F400425A640368F2E700BF06
:10242000000001400004014010B4334A03689042A8
:102430004DD0B0F1804F35D0A2F57C42904231D0E2
:1024400002F5806290422DD002F58062904229D040
:1024500002F57842904225D002F57052904213D096
:1024600002F5806290420FD002F5806290420BD05C
:10247000A2F59832904207D002F58062904203D0D4
:1024800002F58062904203D1CA6823F4407313437B
:1024900003608B68C3620B688362012343615DF84C
:1024A000044B70474A68154C23F070031343CA6805
:1024B00023F44073134303608B68C3620B68836229
:1024C000A04211D0012343615DF8044B70474A6874
:1024D000CC6823F070031A4322F440722243026056
:1024E0008B68C3620B6883620B69036301234361DA
:1024F0005DF8044B704700BF00000140000401403C
:10250000C0B110B590F83930044603F0FF0263B152
:102510000223214684F8393051F8040BFFF784FF79
:10252000012384F83930002010BD80F83820FFF7EF
:1025300055FFEDE7012070470649074A074B9A42CD
:10254000BEBF51F8040B42F8040BF8E7044880477B
:1025500004480047E02C0020005000209450002048
:10256000A1080020E5010020FEE7FEE7FEE7FEE708
:10257000FEE7FEE7FEE7FEE7FEE7FEE708B5074BEE
:10258000044613B10021AFF30080054B1868836A3D
:1025900003B198472046FEF705FA00BF000000008F
:1025A000D02C002070B50E4B0E4CE41AA410002560
:1025B0001E46A54204D056F8253098470135F8E765
:1025C00000F03AF8084C094BE41AA41000251E4606
:1025D000A54204D056F8253098470135F8E770BD7C
:1025E00084500020845000208C5000208450002013
:1025F00010B50A44441E914208D014F8013F0878EF
:10260000834201D0181A10BD0131F4E7002010BD3B
:1026100010B5431E0A44914204D011F8014B03F84F
:10262000014FF8E710BD02440346934202D003F87D
:10263000011BFAE770470000F8B500BFF8BC08BC02
:102640009E467047F8B500BFF8BC08BC9E46704770
:102650000000000000000000010203040607080952
:10266000636F756C64206E6F742070696E6F757423
:102670000000000070696E6D6170206D69732D6DD2
:10268000617463680000000070696E6D6170206E97
:102690006F7420666F756E6420666F72207065724D
:1026A0006970686572616C0070696E6D6170206E32
:1026B0006F7420666F756E6420666F722066756E2B
:1026C0006374696F6E00000075110020891100208D
:1026D000851200209D12002001120020C826002033
:1026E0004C59002006000000003001409302000019
:1026F00014000000003C0040130300001E00000016
:102700000038004093020000220000000038004022
:10271000930200002B000000003C00401303000067
:10272000FFFF0000FFFFFFFF0000000005000000AA
:10273000003001409302000013000000003C004004
:10274000130300001A00000000380040930200004C
:102750001D00000000380040930200002A00000025
:10276000003C0040130300008100000000380040DE
:1027700093020000FFFF0000FFFFFFFF00000000CA
:102780000700000000300140930200001500000027
:10279000003C0040130300001F0000000038004010
:1027A0009302000023000000003800409302000064
:1027B0002C000000003C004013030000FFFF00005D
:1027C000FFFFFFFF00000000040000000030014098
:1027D000830200000F00000000300140830200006F
:1027E0001900000000380040830200001C000000B7
:1027F0000038004083020000FFFF0000FFFFFFFFE2
:1028000000000000000000000100000011000000B6
:102810000200000012000000030000000000111080
:1028200000002110000031100000121000002210E2
:10283000000032100000001050696E6D617020655C
:1028400072726F723A2077726F6E6720706F727457
:10285000206E756D6265722E0000000000000000A1
:10286000963007772C610EEEBA51099919C46D079D
:102870008FF46A7035A563E9A395649E3288DB0EF8
:10288000A4B8DC791EE9D5E088D9D2972B4CB609DB
:10289000BD7CB17E072DB8E7911DBF906410B71DB8
:1028A000F220B06A4871B9F3DE41BE847DD4DA1AF1
:1028B000EBE4DD6D51B5D4F4C785D38356986C1322
:1028C000C0A86B647AF962FDECC9658A4F5C01149B
:1028D000D96C0663633D0FFAF50D088DC8206E3B79
:1028E0005E10694CE44160D5727167A2D1E4033C8B
:1028F00047D4044BFD850DD26BB50AA5FAA8B535B2
:102900006C98B242D6C9BBDB40F9BCACE36CD832A0
:10291000755CDF45CF0DD6DC593DD1ABAC30D92647
:102920003A00DE518051D7C81661D0BFB5F4B4214A
:1029300023C4B3569995BACF0FA5BDB89EB8022847
:102940000888055FB2D90CC624E90BB1877C6F2FCC
:10295000114C6858AB1D61C13D2D66B69041DC76C7
:102960000671DB01BC20D2982A10D5EF8985B171A0
:102970001FB5B606A5E4BF9F33D4B8E8A2C907784F
:1029800034F9000F8EA8099618980EE1BB0D6A7FE6
:102990002D3D6D08976C6491015C63E6F4516B6B9F
:1029A00062616C1CD83065854E0062F2ED95066C54
:1029B0007BA5011BC1F4088257C40FF5C6D9B065C9
:1029C00050E9B712EAB8BE8B7C88B9FCDF1DDD6226
:1029D000492DDA15F37CD38C654CD4FB5861B24D8C
:1029E000CE51B53A7400BCA3E230BBD441A5DF4A56
:1029F000D795D83D6DC4D1A4FBF4D6D36AE9694319
:102A0000FCD96E34468867ADD0B860DA732D0444C3
:102A1000E51D03335F4C0AAAC97C0DDD3C710550EE
:102A2000AA41022710100BBE86200CC925B5685795
:102A3000B3856F2009D466B99FE461CE0EF9DE5EDE
:102A400098C9D9292298D0B0B4A8D7C7173DB3598F
:102A5000810DB42E3B5CBDB7AD6CBAC02083B8ED20
:102A6000B6B3BF9A0CE2B6039AD2B1743947D5EA2D
:102A7000AF77D29D1526DB048316DC73120B63E35C
:102A8000843B64943E6A6D0DA85A6A7A0BCF0EE4BB
:102A90009DFF099327AE000AB19E077D44930FF076
:102AA000D2A3088768F2011EFEC206695D5762F76D
:102AB000CB67658071366C19E7066B6E761BD4FEAA
:102AC000E02BD3895A7ADA10CC4ADD676FDFB9F987
:102AD000F9EFBE8E43BEB717D58EB060E8A3D6D649
:102AE0007E93D1A1C4C2D83852F2DF4FF167BBD177
:102AF0006757BCA6DD06B53F4B36B248DA2B0DD87A
:102B00004C1B0AAFF64A0336607A0441C3EF60DF1C
:102B100055DF67A8EF8E6E3179BE69468CB361CB05
:102B20001A8366BCA0D26F2536E2685295770CCC2A
:102B300003470BBBB91602222F260555BE3BBAC56B
:102B4000280BBDB2925AB42B046AB35CA7FFD7C25C
:102B500031CFD0B58B9ED92C1DAEDE5BB0C2649B4D
:102B600026F263EC9CA36A750A936D02A906099C80
:102B70003F360EEB8567077213570005824ABF95F3
:102B8000147AB8E2AE2BB17B381BB60C9B8ED29276
:102B90000DBED5E5B7EFDC7C21DFDB0BD4D2D386CD
:102BA00042E2D4F1F8B3DD686E83DA1FCD16BE8140
:102BB0005B26B9F6E177B06F7747B718E65A088811
:102BC000706A0FFFCA3B06665C0B0111FF9E658FA2
:102BD00069AE62F8D3FF6B6145CF6C1678E20AA04C
:102BE000EED20DD75483044EC2B30339612667A7D2
:102BF000F71660D04D476949DB776E3E4A6AD1AE21
:102C0000DC5AD6D9660BDF40F03BD83753AEBCA9AF
:102C1000C59EBBDE7FCFB247E9FFB5301CF2BDBD1C
:102C20008AC2BACA3093B353A6A3B4240536D0BA25
:102C30009306D7CD2957DE54BF67D9232E7A66B3C2
:102C4000B84A61C4021B685D942B6F2A37BE0BB46F
:102C5000A18E0CC31BDF055A8DEF022D0000000072
:102C60000102030401020304060708090000000032
:102C70000000000000000000000000000000000054
:102C80000000000000000000000000000000000044
:102C90000000000000000000000000000000000034
:102CA0000000000000000000000000000000000024
:102CB0000000000000000000000000000000000014
:102CC00000000000000000000000000043000000C1
:082CD000245000200000000068
:082CD8000CD5FF7F0100000094
:102CE000106800200468002005680020FFFFFFFF37
:102CF000107800200168002002680020036800208E
:102D0000006CDC02000000006C2C00208C2C0020E9
:102D1000AC2C0020000000000000000000000000BB
:102D200000000000CC2C002000000000000000008B
:102D30000000000000000000000000000000000093
:102D40000000000000000000000000000000000083
:102D50000000000000000000000000000000000073
:102D600000000000AD0100200D07002089010020B7
:042D7000000000005F
:040000052000253979
:00000001FF
