:020000042000DA
:10000000006800206D2B0020B92B0020B92B0020A8
:10001000B92B0020B92B0020B92B002000000000D4
:10002000000000000000000000000000B92B0020CC
:10003000B92B002000000000B92B0020B92B0020B4
:10004000B92B0020B92B0020B92B0020B92B0020A0
:10005000B92B0020B92B0020B92B0020B92B002090
:10006000B92B0020B92B0020B92B0020B92B002080
:10007000B92B0020B92B0020B92B0020B92B002070
:10008000B92B0020B92B0020B92B0020B92B002060
:10009000B92B0020B92B0020B92B0020B92B002050
:1000A000B92B0020B92B0020B92B0020B92B002040
:1000B000B92B0020B92B0020B92B0020B92B002030
:1000C000B92B0020B92B0020B92B0020B92B002020
:1000D000B92B0020B92B0020B92B0020B92B002010
:1000E000B92B0020B92B0020B92B0020B92B002000
:1000F000B92B0020B92B0020B92B0020B92B0020F0
:10010000B92B0020B92B0020B92B0020B92B0020DF
:10011000B92B0020B92B0020B92B0020B92B0020CF
:10012000B92B0020B92B0020B92B0020B92B0020BF
:1001300000000000000000000000000000000000BF
:1001400000000000000000000000000000000000AF
:10015000000000000000000000000000000000009F
:10016000000000000000000000000000000000008F
:10017000000000000000000000000000000000007F
:10018000000000000000000000000000000000006F
:10019000000000000000000000000000000000005F
:1001A000000000000000000000000000000000004F
:1001B000000000000000000000000000000000003F
:1001C000000000000000000000000000000000002F
:1001D000000000000000000000000000000000001F
:1001E0005FF8E0F110B5054C237833B9044B13B137
:1001F0000448AFF300800123237010BD9850002005
:1002000000000000B0320020084B10B51BB10848B8
:100210000849AFF300800848036803B910BD074BD5
:10022000002BFBD0BDE81040184700BF00000000C5
:10023000B03200209C5000209050002000000000B0
:10024000154B002B08BF134B9D46A3F5803A0021A8
:100250008B460F461348144A121A02F004FD0F4B46
:10026000002B00D098470E4B002B00D09847002061
:10027000002104000D000D48002802D00C48AFF307
:10028000008002F0AFFC2000290000F053FC02F0D7
:1002900095FC00BF0000080000680020000000007E
:1002A0000000000098500020985A00200000000034
:1002B0000000000070B40C4E0A0A336819703368ED
:1002C0005A7051B103460844C3F10201CA1813F829
:1002D000015B34688342A554F8D1044B01221B68AA
:1002E0001A7070BC704700BF1050002008500020EA
:1002F0002DE9F04F87B000AFDD2826D0DE28154667
:1003000067D0E12800F0A080E22800F07A81E3289D
:1003100000F0AA81E42800F05081E52800F0D8819F
:10032000E62800F0BF80E72840F08A8007F10B0143
:10033000C14807F10D0201F00BF9FB7A07F10C003F
:1003400009213B73FFF7B6FF7AE08B78C8781B046E
:100350000C798A794E7843EA0020CD7940EA04038B
:100360001204087A43EA066342EA052291F805E09E
:100370000C781D0BDFF8D0A20243DFF8E492AF4EF9
:10038000013542EA0E62EDB2CAF80030C9F8002029
:100390003470DFF8D082002C6FD04FF49023C8F86F
:1003A000003065B10024D8F8000000EB04300134BF
:1003B00001F04EFCA542F6D83478002C63D0012C15
:1003C00000F0E5809E4B00221C371A60BD46BDE858
:1003D000F08F002A00F0EE80DFF864A2994EDAF880
:1003E00000304A1EE81812F8014FC3F30A01013326
:1003F00083427454CAF80030F5D1EBB25FEA152994
:100400007B6015D0DFF83CB2DFF858820024D8F8C2
:10041000003059465B1B03EB04234FF480721844F1
:100420000134934401F0D4FBA145DAF80000EED189
:100430007B68002B40F09980834B1B68834252D02D
:100440001C37BD46BDE8F08F0C787E4B0121E207DA
:10045000197000F1D180A30704D501210A4676481E
:1004600001F0F8F807F11800012100F80C1DFFF762
:1004700021FF1C37BD46BDE8F08F4FF40043C8F89C
:100480000030002D8ED16C480021012201F0C8F807
:100490006948DAF80010D9F80020012301F0CEF8FD
:1004A00034788CE7694D6A4C2A696968694B116038
:1004B0002269616807F1180011609A685B68126828
:1004C00001211A4214BF0B46002300F80C3DFFF730
:1004D000F1FE022000F0D6FAEB686A681A60E36861
:1004E00062681A60ACE75C4C4FF0FF332360030A8C
:1004F0005FFA80FB7B601ED07B68DFF86881574D18
:100500004FEA032A4FF00009D8F800004FF4807238
:100510004C49484401F01CFB4A4E226830460121F8
:1005200001F0AAFB0136AE4202462060F6D109F581
:100530008079D145E8D1BBF1000F40F0B38022684B
:100540003E4B1B788BB3012B40F0CD803A4B444996
:100550009B6A0B609A4207F1180085D0002300F8CF
:100560000C3D0121FFF7A6FE6AE7DFF8F8804FEAAD
:100570000929D8F8003006EB09019944C5EB0905B3
:100580007A68284401F024FBDAF8000054E7224698
:100590002948002101F05EF8DAF80010D9F80020AF
:1005A0002346254801F064F80CE7234B2C491B6ACD
:1005B0000B60CFE7224B18683EE76C460B78012AA8
:1005C0008CBF4A1C002219461B4800F0B3FFEB1DEC
:1005D00023F00703ADEB030D0DF10102164807F1FF
:1005E0000C0100F0B5FF3B7B68468DF800302946D2
:1005F000FFF760FEA54623E70F480A4601F010F812
:1006000029E76C460020796001F022FB79682A46D0
:10061000002001F0DDFAEB1D23F00703ADEB030D25
:1006200069462A46002001F093FA68462946FFF7FA
:1006300041FEA54604E700BFC8580020BC5000207A
:10064000C4580020C0500020B8500020305900206D
:10065000445900201C5900200C500020C05100209B
:10066000B4500020C05800206C462048796000F04B
:100670007DFF79682A461D4800F088FF1B4801F07D
:100680003BF8EB1D23F00703ADEB030D6946002299
:100690002B46164800F092FF68462946FFF70AFEEF
:1006A000A546CDE61249134B0D4618687B685A469D
:1006B00000EB032001F04CFA2268AB4428460121EC
:1006C00001F0DAFA01355D4502462060F6D137E7E0
:1006D00007F10C01054800F027FF07F10C00082185
:1006E000FFF7E8FDACE6044B1B6833E7C858002071
:1006F000C0500020C0580020B450002008B5044865
:100700000C21FFF7D7FDBDE80840024801F04AB8C8
:10071000E8F7FF1FC858002010B50D4C23681B7860
:10072000012B00D010BD0B4A0B4B12681B680B4904
:100730001B78127808680A4903EB022292B200780B
:100740000968FFF7D5FD236800221A7010BD00BFAD
:1007500014500020045000201C500020185000208D
:100760000050002010B5124800F0DAFE114B0024B2
:100770001846222102221C705C609C60DC601C61B7
:1007800000F022F90C4B1F2118461C705C609C6025
:10079000DC601C6100F02CF9084B1C211C705C60B3
:1007A0009C60DC601C611846BDE8104000F020B978
:1007B000C85800201C5900203059002044590020FE
:1007C00030B4114B9D689C68B4F1006F09D09C68EF
:1007D0000E4B2A469C4204D0103042F8201030BC08
:1007E00070470B4A2B46EC3553F8044BAB4242F8AA
:1007F000044FF9D14FF000531A46034C1030A36058
:1008000042F8201030BC704700ED00E00080000886
:10081000FCFFFF1F144A536803F00C03042B1CD089
:10082000082B0AD0114B104A114852681149C2F3E3
:100830000312825CD3400B60704753685168C3F366
:100840008343C90303F1020309D5526892034CBFE5
:10085000064A094A02FB03F3E5E7074BE3E7074AC9
:1008600002FB03F3DFE700BF0010024000127A0032
:10087000902C0020205000200024F40000093D00AE
:1008800030B591B00123069300B1052307934FF4CF
:1008900000314FF4E0134FF48032022406A80F9386
:1008A00008910D940E9201F057FB034610B1002001
:1008B00011B030BD4FF4806221460F2501A802948B
:1008C000039305930195049201F00AFFB0FA80F0BA
:1008D000400911B030BD00BF70B590B04FF4601347
:1008E0000121002410220326022506A80F93069654
:1008F0000A9107940E940B920D9501F02DFB03467F
:1009000010B1204610B070BD4FF4806229460F240C
:1009100001A80295039305930194049201F0E0FE6F
:10092000B0FA80F0400910B070BD00BF08B50020DB
:10093000FFF7A6FF00B108BDFFF7CEFF0028FAD1F0
:10094000FEE700BF70B5174C174B2268174842F0FE
:100950000102226062681649134063602368154AE9
:1009600023F0847323F48033236023684FF41F063D
:1009700023F48023236063684FF0005523F4FE03C3
:100980006360A6608560116001F09EF9FFF7CEFFFD
:10099000236943F008032361236923F008032361DB
:1009A00070BD00BF001002400000FFF800ED00E045
:1009B00000127A002050002072B6FEE70FB408B58E
:1009C000012002F0FBF800BF70B50D461646044644
:1009D00000F0EAF8013509D02046002100F006F9C0
:1009E00020463146BDE8704000F0FCB870BD00BF45
:1009F00038B50D46044600F0D7F801350CD0236910
:100A0000626820461A60012100F0F0F82046BDE837
:100A10003840002100F0E6B838BD00BF70B50D4683
:100A20001646044600F0C0F8013511D066B92369B6
:100A300062681A602046012100F0D8F82046BDE81F
:100A40007040002100F0CEB8E36862681A60F1E7F8
:100A500070BD00BF08B500B9FEE7FFF7ADFFFBE7CB
:100A6000F8B5044600F0C0FC06460F46002500F02D
:100A7000BBFC801B61EB0701A94208BFA042F6D373
:100A8000F8BD00BF4FF47A7303FB00F0FFF7E8BF37
:100A900010B5431C044619D091F90030581C04D1FC
:100AA0000FE011F90C3F5A1C0BD09C42F9D12046A3
:100AB000896800F0D1F92046BDE81040002100F01F
:100AC0007BBA0348BDE81040FFF778BF10BD00BFF8
:100AD000A02C002088420AD0421C09D0013106D047
:100AE00008B50448FFF76AFF4FF0FF3008BD7047B4
:100AF00008467047B42C0020421C0FD008B591F96D
:100B000000305A1C04D10AE011F90C3F5A1C06D0DF
:100B10009842F9D14868411C01D008BD704703488C
:100B2000FFF74CFF4FF0FF30F7E700BFC82C002065
:100B3000704700BF08B500F033F9FFF7F9FFBDE8D3
:100B4000084001F0B5B800BF70B503680546DB6822
:100B500098476B680DE02A681C6853689847201A0C
:100B600000280EDC6B685968CA685A606B681A689E
:100B700082B95B68002BEED12B68BDE870409B68A2
:100B800018476A682B6852681B69D2E90001BDE802
:100B90007040184788689047DBE700BF0148FFF7BF
:100BA000D3BF00BF1C2D002070B505464B1C0C4662
:100BB000297015D0C1F3031000F0FAF806460021A1
:100BC000204600F049F904F00F04012306F1080162
:100BD00006F11002A34014366B60A960EA602E6132
:100BE00070BD00BF90F9000000F0E6B9012990F94E
:100BF000000018BF002100F02FB900BFF8B5304B3E
:100C0000304C586A23601A69D5070AD56FF0010283
:100C10002D491A61D1E90023013243F10003C1E9F2
:100C20000023274B1A69910723D56FF00202274949
:100C30001A610E88264D0027D5E90023921B63EB2D
:100C40000703DFF898E0002B80B296B208BF0B2AAA
:100C5000AEF80000C5E900230E8027D3002B08BFA3
:100C6000B2F5803F1BD34FF6FF730B8000F0A4FB5F
:100C700023681A69520709D56FF00402154E1A61EC
:100C80005D6A3368EB1AB3F57A7F00D2F8BD01F0E4
:100C90002DF8236805F57A7235609A63F8BD013046
:100CA000304480B200F088FB2368E2E70A4D01235C
:100CB0002B70FFF773FF00232B702368D9E700BF69
:100CC000000C00405C5A0020105A0020CA59002035
:100CD000C059002060590020C8590020185A00202F
:100CE00070B582B0264B274CDA69002542F0080225
:100CF000DA61DA69244E02F008020192019A1A6957
:100D000042F008021A611A6922F008021A61FFF71C
:100D100081FD1E4B1E4A1B681E49A2FB03239B0C30
:100D2000013B4FF0FF32204684E80A00E260256173
:100D3000A56001F0FFFE2946204601F09BFE2046FB
:100D4000042101F097FE22683220536A03F57A717C
:100D5000916311493360FFF733FD104B4FF480224C
:100D60005A6023682046DA6842F00102DA60DA68E5
:100D700042F00402DA6001F06DFE284602B070BD58
:100D8000001002405C5A00206059002020500020D2
:100D900083DE1B43000C0040FD0B002000E100E05F
:100DA00008B5FFF737FDBDE8084000F08DBF00BF74
:100DB00000B585B003283BD8DFE800F02C1E1002F8
:100DC0001F4B20489A6942F020029A619B6903F008
:100DD00020030293029B05B05DF804FB184B1A48F0
:100DE0009A6942F010029A619B6903F01003019323
:100DF000019B05B05DF804FB114B14489A6942F061
:100E000008029A619B6903F008030093009B05B0F8
:100E10005DF804FB0A4B0E489A6942F004029A619D
:100E20009B6903F004030393039B05B05DF804FB87
:100E30000848FFF7C3FD002005B05DF804FB00BFC4
:100E4000001002400014014000100140000C01405D
:100E500000080140242E00202DE9F04387B005460C
:100E6000C0F3031001F00F08C1F30216C1F3C31958
:100E7000FFF79EFF4D4AEFB2946907F00F0E44F062
:100E800001049461926902F001020192019BB9F19F
:100E9000000F15D009F1FF31082911D8DFE801F062
:100EA000454D555D6571057D3D00414A536823F010
:100EB000E06323F4406343F0E06343F40063536072
:100EC0003C4B012253F8283002FA0EF2032402A907
:100ED000039304960292059400F036FFA7F10D03E8
:100EE000012B12D90F2D06D0A7F11303012B02D924
:100EF00007B0BDE8F0832E4A536823F0E06343F067
:100F00000073536007B0BDE8F083294A536823F0AB
:100F1000E06343F080635360E6E7254A536843F09B
:100F2000E06343F440635360CAE7214A536843F0E7
:100F3000E06343F001035360C2E71D4A536843F086
:100F4000E06343F002035360BAE7194A536843F081
:100F5000E06343F004035360B2E7154A536843F07B
:100F6000E06343F008035360AAE7114A536823F093
:100F7000E06323F0300343F0E06343F01003536079
:100F80009EE70B4A536823F0E06323F0C00343F06D
:100F9000E06343F04003536092E7054A536843F02F
:100FA000E06343F4407353608AE700BF00100240DF
:100FB00000000140F02D002038B50C46C5B2C0F34A
:100FC0000310FFF7F5FE05F00F03ECB1022C1CD95E
:100FD000032C39D1072B0BD89B0002689C4014428C
:100FE00012D00268042101FA03F31343036038BDF1
:100FF00005F00705AD004368AC401C4204D04268D0
:101000000423AB401343436038BD072B1DD905F0C3
:101010000705AD0003224168AA400A420AD141688F
:101020000822AA400A43426041680422AA4021EAF9
:1010300002024260012C1AD0C268012101FA03F3B6
:1010400022EA0303C36038BD38BD99000322056856
:101050008A402A42EED1056808228A402A4302606B
:10106000056804228A4025EA02020260E2E7C268BB
:101070009C401443C46038BD38B5114C026800234D
:1010800022601168072521F0400111608269016921
:10109000E261C268A360626182686160A3622261EA
:1010A000E5624168236242692046A2616362E160B1
:1010B00001F088FC2268136843F04003136038BDD8
:1010C000645900202DE9F04F87B004460F460846CA
:1010D000404990461E469DF94050FFF70DFD3E49A0
:1010E00001904046FFF708FD3C4981463046FFF736
:1010F00003FD3B4983462846FFF7FEFC019B49461A
:1011000082461846FFF7E6FC514681465846FFF7EF
:10111000E1FC01464846FFF7DDFC324B2060984277
:101120004AD0314B98423AD0304B98422BD0384677
:101130002849FFF7ADFC40462749FFF7A9FC304698
:101140002649FFF7A5FC002338226360A360E36013
:101150006B1C84F81C806777A677E577A26108D1BD
:101160004FF4007363612046FFF786FF07B0BDE8C8
:10117000F08F28461A49FFF78BFC2046FFF77CFFCB
:1011800007B0BDE8F08F03F5EA33DA6942F40042B4
:10119000DA61DB6903F400430593059BC7E703F5B8
:1011A000EC33DA6942F48042DA61DB69206803F4E7
:1011B00080430493049BB7E703F560439A6942F4C4
:1011C00080529A619B69206803F480530393039BC8
:1011D000A7E700BF842D0020242D0020542D0020DF
:1011E000B42D00200030014000380040003C004099
:1011F00010B410290CBF4FF400610021012A0446ED
:10120000416022D0022A1CD0C2B102210122816099
:10121000C2606269B2F5007F05D0002B14BF0022C6
:101220004FF480226261002B14BF00234FF48273BD
:10123000236120465DF8044BFFF71EBF8260C26049
:10124000E7E700218260C160E3E70021C2608160BE
:10125000DFE700BF3D4A0368934233D03C4A9342E4
:1012600002D03C4A934232D13B4B99422DDDA1F54D
:101270007432903A9A422CD9A1F5F423374AA3F557
:101280009073934255D9A1F57423354AA3F5107391
:10129000934252D9A1F5F413324AA3F590639342D5
:1012A0004ED9A1F57413304AA3F5106393424AD97D
:1012B000A1F5F4012D4BA1F59051994236D90023A7
:1012C000836104E0254B994207DC38238361FFF7F3
:1012D000D3BE30238361FFF7CFBEA1F5F422A2F580
:1012E00090729A42F5D9A1F574231D4AA3F51073A3
:1012F00093421ED9A1F5F4131A4AA3F590639342C1
:101300001BD9A1F57413184AA3F51063934217D99A
:10131000A1F5F403154AA3F59053934213D9A1F50F
:101320007401134BA1F510519942C8D80823836169
:10133000CDE728238361FFF79FBE20238361C6E7A3
:1013400018238361C3E710238361C0E700300140A5
:1013500000380040003C00408FD003001FA1070070
:101360003F420F007F841E00FF083D00FF117A00FE
:10137000FF23F40030B403680E4A1D4600E0036802
:101380009C681360A407FAD543686BB92973036896
:101390001C4600E0036899681360CB07FAD54368E0
:1013A0002BB1E06830BC704789B2E960EFE7207B81
:1013B00030BC704764590020044B054A13605863E1
:1013C000DA6842F00202DA60704700BF000C0040A9
:1013D000CC590020034B186800B1704701221A60F5
:1013E000FFF77EBC085A0020F8B51B4B186818B9E7
:1013F00001221A60FFF774FC184BDFF86CC09E46A0
:10140000DCE900015A6A0F04060447EA1047B618DF
:1014100047F1000701E006460F46DCE900231D0402
:10142000DEF824301404E01845EA124545F10001C5
:101430008F4208BF8642094BEDD2094A127852B159
:10144000084A12885C6A93B2A34204D94FF6FF722D
:10145000002380185941F8BD085A0020000C0040B4
:10146000C8590020185A0020105A002010B582B028
:10147000CDE90001FFF7B8FFDDE90023994208BF7D
:10148000904220D2DDE90023144C121A63EB0103D1
:10149000C4E90023D4E90023002B08BFB2F5803F44
:1014A00013D2D4E900230E4992B20A800B880D4A68
:1014B0009BB2013318440C4B80B213605863DA6856
:1014C00042F00202DA6002B010BD4FF6FF74044928
:1014D000044A054B80B20C80EFE700BFC0590020E2
:1014E000CA590020CC590020000C0040034B044A8C
:1014F0001360DA6822F00202DA607047000C0040E4
:10150000CC590020044B054A13601A69920744BF66
:101510006FF002021A617047000C0040CC590020A5
:10152000002280F8482070470346082208461946E2
:1015300001F08EBB81634AB100F13B03013A4330B5
:1015400012F8011F03F8011F8342F9D1704700BF51
:10155000836B0B704AB100F13B03013A433013F83F
:10156000011F834202F8011FF9D1704710B50446EC
:10157000012380F848304FF4804000F069FB0022DE
:101580004FF0FF33E264236510BD00BFF8B5C66CB1
:101590009519B5F5007F10D8044615460F4606F597
:1015A00080400C3000F014FBE36C38462B44E364BD
:1015B0002946226D00F060FB2065F8BD10B500697A
:1015C000D418844201D9002010BD02F5A0400C308F
:1015D0001A4600F0BDFA012010BD00BF38B500F179
:1015E000180405462C214FF0FF32204600F044FB42
:1015F00068644FF4005000F02BFB214630224FF47A
:10160000005000F0E5FA4FF4405000F021FB214675
:10161000BDE838404FF44050302200F0D9BA00BF46
:10162000836921B143F0010383612AB9704723F034
:1016300001038361002AF9D0FFF7D0BF10B4C16164
:10164000026213B95DF8044B70475DF8044BFFF775
:10165000C5BF00BF836921B143F0020383612AB98A
:10166000704723F002038361002AF9D0FFF7B6BF69
:1016700010B44162826213B95DF8044B70475DF8A3
:10168000044BFFF7ABBF00BF70B590B005690C35D8
:1016900013D000262C46402D28BF402406F5A0403C
:1016A0002246694600F054FA06F580402246694613
:1016B00000F08EFA2D1B2644ECD110B070BD00BF97
:1016C00070B590B005690C3513D000262C46402D1E
:1016D00028BF402406F580402246694600F038FACB
:1016E00006F5A0402246694600F072FA2D1B2644FA
:1016F000ECD110B070BD00BF38B505460446C368D4
:10170000C26C0133DBB2026145F80C3F226D082147
:10171000284600F0B1FA29460C2260614FF480405F
:1017200000F056FA4FF4A04000F092FA2046FFF77E
:10173000C7FF002384F8483038BD00BF2DE9F041D1
:1017400094B00C220846884601A900F001FA029DD7
:10175000B5F5007F04D94FF0553014B0BDE8F081E5
:10176000EDB10C264FF0FF372C46402D28BF40240A
:1017700006EB0800224604A900F0EAF93A4604A85C
:10178000214600F079FA2D1B26440746ECD101A82A
:101790003A46082100F070FA14B0BDE8F0814FF02D
:1017A000FF37F4E770B58CB0044601460C220020E8
:1017B00000F0CEF9204608214FF0FF3200F05CFA2D
:1017C000A368834204D020463021082201F04BFA5E
:1017D00004F11805294630224FF4005000F0B8F902
:1017E00028462C214FF0FF3200F046FA636C83420A
:1017F00063D0294630224FF4405000F0A9F9284622
:101800002C214FF0FF3200F037FA636C83426CD02A
:101810000021A161E16121626162A162E16204F1E2
:101820003000082201F01FFA04F10C0529460C22B1
:101830004FF4804000F08CF920464FF48041FFF7D0
:101840007DFF6369834212D029460C224FF4A040E9
:1018500000F07EF920464FF4A041FFF76FFF636967
:10186000834222D00023E36023610CB070BD236962
:10187000B3F5007FE8D80C2269464FF4A04000F091
:1018800067F94FF4A0412046FFF758FF2946064666
:101890000C22684601F0CCF910B9029BB3422FD05C
:1018A0002046FFF70DFF0CB070BD2369B3F5007F34
:1018B000D8D82046FFF7E8FED7E7694630224FF434
:1018C000405000F045F968462946302201F0B0F951
:1018D0000028A9D04FF4405000F0BAF92946302230
:1018E0004FF4405000F074F99EE74FF4005000F0C0
:1018F000AFF9294630224FF4005000F069F993E720
:10190000019BB3F5007FB0D9CAE700BF10B5064C04
:1019100006482369626806211A60FFF72BFDE36819
:1019200062681A6010BD00BF405A0020205A002093
:1019300010B5094C2369626805211A600748FFF752
:1019400019FD0648FF21FFF715FDE36862681A607C
:10195000C307EFD410BD00BF405A0020205A00201A
:1019600070B50E46134D20F47F64FFF7E1FFFFF7DB
:10197000CDFF2B696A6824F00F041A6020210E48FD
:10198000FFF7F8FCC4F307410B48FFF7F3FC210A0B
:1019900001F0F0010848FFF7EDFC07480021FFF7D0
:1019A000E9FCEB686A681A6006B970BDBDE8704072
:1019B000FFF7BEBF405A0020205A00202DE9F04119
:1019C000054617460C46174E9846FFF7B1FFFFF73E
:1019D0009DFF3369726802211A601348FFF7CAFC41
:1019E000C5F307411048FFF7C5FCC5F307210E48B2
:1019F000FFF7C0FCE9B20C48FFF7BCFCE51937B1B2
:101A000014F8011B0848FFF7B5FCAC42F8D1F368A5
:101A100072681A60B8F1000F01D0FFF789FF3846ED
:101A2000BDE8F081405A0020205A00202DE9F04105
:101A3000054617460C46194E9846FFF779FF33695D
:101A400072680B211A601648FFF794FCC5F3074132
:101A50001348FFF78FFCC5F307211148FFF78AFCF5
:101A6000E9B20F48FFF786FC0D48FF21FFF782FC23
:101A7000E5193FB10A48FF21FFF77CFC04F8010B90
:101A8000AC42F7D1F36872681A60B8F1000F01D068
:101A9000FFF74EFF3846BDE8F08100BF405A0020F6
:101AA000205A002038B50F4C0F4D626823699F21E2
:101AB0001A602846FFF75EFCFF212846FFF75AFC14
:101AC0000A4BFF2118702846FFF754FC084BFF21F2
:101AD00018702846FFF74EFC0649E36862680870F4
:101AE0001A6038BD405A0020205A00201A5A00209F
:101AF0001D5A00201B5A002010B582B0104C11480E
:101B000026210122FEF78AFF4FF0FF332046009383
:101B1000072106220523FFF7D5FA002213462046A7
:101B20000821FFF765FB20460749FFF793FB074BAA
:101B300001221A7002B0BDE81040FFF7B3BF00BF2A
:101B4000205A0020405A002000B4C4041C5A00202F
:101B50002DE9F0471D4B80461B780C46174693B382
:101B60005FFA88F3C3F58075BD4228BF3D46404605
:101B7000C5EB070A2A4601232146FFF757FF4FEA24
:101B80001A234FEA0329A844C9EB0A0A254473B172
:101B90002C464D44C4EB08064FF48072A019214630
:101BA00001231444FFF742FFAC42F5D1C844BAF117
:101BB000000F05D04046294652460123FFF736FF65
:101BC0003846BDE8F087FFF797FFC9E71C5A0020A9
:101BD0002DE9F0471D4B80461B780C46174693B302
:101BE0005FFA88F3C3F58075BD4228BF3D46404685
:101BF000C5EB070A2A4601232146FFF7DFFE4FEA1D
:101C00001A234FEA0329A844C9EB0A0A254473B1F1
:101C10002C464D44C4EB08064FF48072A0192146AF
:101C200001231444FFF7CAFEAC42F5D1C844BAF10F
:101C3000000F05D04046294652460123FFF7BEFE5D
:101C40003846BDE8F087FFF757FFC9E71C5A002068
:101C5000084B1B7813B10121FFF782BE00B583B09A
:101C60000190FFF749FF0198012103B05DF804EBF3
:101C7000FFF776BE1C5A0020D24381B110B4094C44
:101C8000014410F8013B5340DBB254F82330884242
:101C900083EA1222F5D1D0435DF8044B7047D0435C
:101CA000704700BF482E0020704700BF704700BF3C
:101CB00008B5FFF7F9FFFEF721FDFFF7F7FFFEF785
:101CC0002BFDFAE7704700BF08B5074A03201368E9
:101CD00043F01003136000F025F80F20FFF700F821
:101CE000FFF7F0FF002008BD00200240024A136801
:101CF00001331360704700BF545A0020014B18682D
:101D0000704700BF545A002010B582B00190FFF711
:101D1000F5FF0446FFF7F2FF019B001B9842F9D341
:101D200002B010BD4FF6FF02064900F00700CB6875
:101D30001A4042F0BF6343F4003343EA0023CB6010
:101D4000704700BF00ED00E02DE9F04F83B00025A3
:101D50002A46DFF8F4E1754CDFF8F0C103E0013208
:101D6000102A00F08E8001230E6893401E409E4290
:101D7000F5D14B68122B00F0AA8000F29380022B61
:101D800000F0AA8040F28880032B00F0A380112B82
:101D900001D1CD680435FF2E76D8824603684FEA1C
:101DA000820B4FF00F0909FA0BF823EA080805FA2D
:101DB0000BF348EA0303CAF800304B68DB00CED5CA
:101DC0005B4B5B4FD3F8188022F0030348F0010807
:101DD000C7F81880D7F8188003F1804308F001088D
:101DE000CDF8048003F5803302F00308DDF804A089
:101DF0004FEA8808D3F808A009FA08F970452AEADA
:101E0000090A7CD060457DD04A4FB8427FD04A4F06
:101E1000B84200F08180494FB84200F08280484FBC
:101E2000B8420CBF4FF005094FF0060909FA08F94E
:101E300049EA0A09C3F808904B68013213F4803F5D
:101E4000236814BF3343B34323604B6813F4003F4C
:101E5000636814BF3343B34363604B6813F4801F5C
:101E6000A36814BF3343B343A3604B6813F4001F4C
:101E7000E36814BF1E4323EA0606102AE6607FF4D7
:101E800072AF03B0BDE8F08FA2F1080B43684FEAD0
:101E90008B0B00F1040A84E7ABB1012B7FF47BAF1D
:101EA000CD6878E7274FBB420DD018D9DFF8A08066
:101EB000434508D008F58038434504D0A8F580187C
:101EC00043457FF468AF8B689BB9042563E7CD6811
:101ED0000C3560E700255EE7CD6808355BE7DFF885
:101EE00074804345EFD008F5803843457FF453AF05
:101EF000E9E7012B0CBF0661466108254BE74FF06F
:101F0000000995E74FF0010909FA08F990E74FF049
:101F1000020909FA08F98BE74FF0030909FA08F9F1
:101F200086E74FF0040909FA08F981E70004014047
:101F30000010024000100140001401400018014050
:101F4000001C01400000211000080140000C01406D
:101F500000003110000011102DE9F04182B003683B
:101F60000446DE0740D5BE494A6802F00C02042A46
:101F700000F038814A6802F00C02082A00F02E8135
:101F8000B74B4FF400371A681D4622F480321A60AE
:101F90001A6822F480221A60FFF7B0FE064616E0A7
:101FA00097FAA7F3B3FA83F36A6A97FAA7F3B3FA37
:101FB00083F303F01F0322FA03F3D90740F11182E0
:101FC000FFF79CFE801BB0F5FA7F00F2D38197FAF1
:101FD000A7F3B3FA83F343F02003C3F34213012BB7
:101FE000DED12A68E1E723689F0744D59C4B5A68F5
:101FF00012F00C0F00F0BE805A6802F00C02082AA2
:1020000000F0B4802269002A00F02782012292FAAF
:10201000A2F3B3FA83F3DBB29B0003F1844303F52D
:1020200084031A60FFF76AFE022706468C4D15E00E
:1020300097FAA7F3B3FA83F36A6A97FAA7F3B3FAA6
:1020400083F303F01F0322FA03F3D80700F1B280F1
:10205000FFF754FE801B642800F28C8197FAA7F3E7
:10206000B3FA83F343F02003C3F34213012BDFD110
:102070002A68E2E723681A0747D4590700F1DC8091
:10208000E369002B00F07A81754D6A6802F00C025A
:10209000082A00F0CD80022B4FF0807300F03B82C5
:1020A00093FAA3F3B3FA83F3DBB29B0003F1844307
:1020B00003F5840300221A60FFF720FE2C464FF040
:1020C0000076054615E096FAA6F3B3FA83F3626A42
:1020D00096FAA6F3B3FA83F303F01F0322FA03F38D
:1020E000DB0740F14B81FFF709FE401B642800F23B
:1020F000418196FAA6F3B3FA83F343F02003C3F3C6
:102100004213012BDFD12268E2E7A269002A00F026
:102110003981012292FAA2F3B3FA83F35149DBB277
:1021200041F82320FFF7EAFD022706464C4D05E063
:10213000FFF7E4FD801B642800F21C8197FAA7F3E7
:10214000B3FA83F397FAA7F3B3FA83F36A6A97FAB9
:10215000A7F3B3FA83F303F01F0322FA03F3DB07B9
:10216000E6D50120FFF7D0FD236886E75B68DE0334
:102170003FF548AF022292FAA2F3B3FA83F343F099
:102180002003C3F34213012B00F0288192FAA2F23C
:10219000B2FA82F2324B5A6A022393FAA3F3B3FAE9
:1021A00083F303F01F0322FA03F3DD0702D523694B
:1021B000012B3DD12A48F823026893FAA3F3B3FA1E
:1021C00083F36169DBB222F0F802994041EA02032D
:1021D000036023681A077FF550AF96E74A68D50376
:1021E0007FF5CEAE4FF4003191FAA1F2B2FA82F24D
:1021F00042F02002C2F34212012A00F0EC8091FA70
:10220000A1F1B1FA81F1164A516A4FF4003292FA03
:10221000A2F2B2FA82F202F01F0221FA02F2D00711
:102220007FF5E2AE626822F00402012A3FF4DCAEE0
:10223000012002B0BDE8F081094A0B4BD1691D466F
:1022400041F08051D161D26902F080520192019A2D
:102250001A6842F480721A60FFF750FD06460AE0E1
:10226000001002408004424200700040FFF746FD2B
:10227000801B64287ED82B68DA05F7D5012393FAF2
:10228000A3F3B3FA83F3C34ADBB2002142F823106D
:10229000042393FAA3F3B3FA83F3DBB242F82310D7
:1022A000FFF72CFD4FF002080746BB4D41F2883680
:1022B00004E0FFF723FDC01BB0425BD898FAA8F3F7
:1022C000B3FA83F398FAA8F3B3FA83F343F0400325
:1022D000C3F34213022B0CBF2A6A6A6A98FAA8F366
:1022E000B3FA83F303F01F0322FA03F313F001039D
:1022F000DFD1E268002A40F09881012393FAA3F32A
:10230000B3FA83F3A349DBB241F82320042393FA01
:10231000A3F3B3FA83F3DBB241F82320E368012B84
:1023200000F09781FFF7EAFC41F2883607469A4DA4
:102330004FF0020898FAA8F3B3FA83F398FAA8F3D7
:10234000B3FA83F343F04003C3F34213022B0CBFF1
:102350002A6A6A6A98FAA8F3B3FA83F303F01F03B0
:1023600022FA03F3D8077FF58BAEFFF7C7FCC01B3B
:10237000B042DFD9032002B0BDE8F081002002B0F6
:10238000BDE8F081012393FAA3F3B3FA83F3834901
:10239000DBB241F82320FFF7B1FC022706467E4D51
:1023A00004E0FFF7ABFC801B6428E3D897FAA7F39F
:1023B000B3FA83F397FAA7F3B3FA83F36A6A97FA47
:1023C000A7F3B3FA83F303F01F0322FA03F3D8074A
:1023D000E7D4236851E6704A116816E76E4B1A6815
:1023E000DAE66D4B1A6822F480321A606268012ABC
:1023F00000F0C480052A00F0CA801A6822F4802206
:102400001A606368002B5CD0FFF778FC4FF400374C
:102410000646614D15E097FAA7F3B3FA83F36A6AAB
:1024200097FAA7F3B3FA83F303F01F0322FA03F337
:10243000DA073FF5D8ADFFF761FC801BB0F5FA7FF6
:1024400098D897FAA7F3B3FA83F343F02003C3F3C2
:102450004213012BDFD12A68E2E7012393FAA3F3A9
:10246000B3FA83F3DBB29B0003F1844303F58403E7
:102470001A60FFF743FC02270646474D15E097FA1E
:10248000A7F3B3FA83F36A6A97FAA7F3B3FA83F36D
:1024900003F01F0322FA03F3D9077FF5EBADFFF733
:1024A0002DFC801B64283FF665AF97FAA7F3B3FABB
:1024B00083F343F02003C3F34213012BDFD12A68D7
:1024C000E2E7FFF71BFC4FF400370646324D16E0FB
:1024D00097FAA7F3B3FA83F36A6A97FAA7F3B3FA02
:1024E00083F303F01F0322FA03F3DB077FF57BADD1
:1024F000FFF704FC801BB0F5FA7F3FF63BAF97FA7D
:10250000A7F3B3FA83F343F02003C3F34213012B81
:10251000DED12A68E1E793FAA3F3B3FA83F3DBB2DF
:102520009B0003F1844303F5840300221A60FFF744
:10253000E5FB4FF00077064614E097FAA7F3B3FAED
:1025400083F36A6A97FAA7F3B3FA83F303F01F03DE
:1025500022FA03F3D90725D5FFF7D0FB801B6428A7
:102560003FF608AF97FAA7F3B3FA83F343F02003DB
:10257000C3F34213012BE0D12A68E3E71A6822F47F
:1025800080221A601A6842F480321A6039E7044BDC
:102590001A7036E7000442420010024080044242B2
:1025A00002100240226AB2F5803F7BD04A49606A3D
:1025B0004C684FF0807324F47414204302434A6043
:1025C00093FAA3F3B3FA83F3DBB29B0003F18443E2
:1025D00003F5840301221A600C46FFF78FFB4FF0CE
:1025E0000076054615E096FAA6F3B3FA83F3626A1D
:1025F00096FAA6F3B3FA83F303F01F0322FA03F368
:10260000DA073FF5BBAEFFF779FB401B64283FF6C6
:10261000B1AE96FAA6F3B3FA83F343F02003C3F303
:102620004213012BDFD12268E2E7012A43D00120C7
:1026300090FAA0F2B2FA82F22849D2B241F82230DE
:10264000042393FAA3F3B3FA83F3DBB241F8230034
:1026500064E6FFF753FB41F2883607461E4D4FF004
:10266000020898FAA8F3B3FA83F398FAA8F3B3FA36
:1026700083F343F04003C3F34213022B0CBF2A6AD7
:102680006A6A98FAA8F3B3FA83F303F01F0322FAF5
:1026900003F3DB073FF5F4ACFFF730FBC01BB042A0
:1026A000DFD967E60C49A3684A6822F40032134375
:1026B0004B60226A7AE7042191FAA1F1B1FA81F123
:1026C0000648C9B240F8213092FAA2F3B3FA83F374
:1026D000DBB240F8232021E6001002400004424211
:1026E0002DE9F041B44A0C461368054603F0070390
:1026F0008B420CD2136823F007030B43136013685B
:1027000003F007038B4275D00120BDE8F081036818
:102710009E0707D5A94983684A6822F0F00213434F
:102720004B600368D8073FD56B68012B00F0C5806C
:10273000022B00F0DA80022191FAA1F2B2FA82F2C1
:1027400042F02002C2F34212012A00F0118191FAF4
:10275000A1F1B1FA81F1994A516A022292FAA2F2E8
:10276000B2FA82F202F01F0221FA02F2D107CBD5AF
:10277000924E41F28838726822F00302134373606C
:10278000FFF7BCFA6B680746012B00F08580022B2F
:1027900006D18CE0FFF7B2FAC01B404500F2A280E0
:1027A000736813F00C0FF5D1834A136823F0070305
:1027B00023431360136803F00703A342A4D12B68DB
:1027C0005A0707D57D49EB684A6822F4E062134353
:1027D0004B602B681B0707D5784A2969536823F497
:1027E000605343EAC10353600F20FEF779FA0020DB
:1027F000BDE8F0810368990707D5704983684A6886
:1028000022F0F00213434B600368DA07D8D56B68F7
:10281000012B00F0B080022B00F09280022191FA8F
:10282000A1F2B2FA82F242F02002C2F34212012A6D
:1028300000F0B98091FAA1F1B1FA81F15F4A516AD1
:10284000022292FAA2F2B2FA82F202F01F0221FAF6
:1028500002F2D7077FF558AF584C41F288376268CB
:1028600022F0030213436360FFF748FA6B680646E1
:10287000012B54D0022B05D15CE0FFF73FFA801BFF
:10288000B8422FD8636813F00C0FF6D197E7FFF723
:1028900035FAC01B404525D8736803F00C03042BA0
:1028A000F5D181E7FFF72AFAC01B40451AD87368B3
:1028B00003F00C03082BF5D176E74FF4003191FAC1
:1028C000A1F2B2FA82F242F02002C2F34212012ACD
:1028D00066D091FAA1F1B1FA81F1384A516A4FF408
:1028E00000323BE70320BDE8F0814FF0007191FA20
:1028F000A1F2B2FA82F242F02002C2F34212012A9D
:1029000033D091FAA1F1B1FA81F12C4A516A4FF01A
:10291000007223E7FFF7F2F9801BB842E2D8636840
:1029200003F00C03042BF5D149E7FFF7E7F9801B0F
:10293000B842D7D8636803F00C03082BF5D13EE703
:102940004FF0007191FAA1F2B2FA82F242F0200245
:10295000C2F34212012A2CD091FAA1F1B1FA81F10D
:10296000164A516A4FF000726BE7144A1168CEE7BD
:10297000124A1168F1E64FF4003191FAA1F2B2FA6D
:1029800082F242F02002C2F34212012A0ED091FAE2
:10299000A1F1B1FA81F1094A516A4FF4003250E7CE
:1029A000064A11689BE7054A116849E7034A11681E
:1029B000F3E7024A1168D5E7002002400010024008
:1029C000704700BF00283ED038B590F8513004461B
:1029D000002B35D02268022384F8513013681B483D
:1029E00023F040031360A1686268E3680A43216929
:1029F000134362691943E3690A43216A42EA030502
:102A0000A26AA36929430A4303F4007321681343AC
:102A10000B60628B636A216802F0040213434B600F
:102A20002268E16A0023116121680125CA690370E7
:102A300022F40062CA61636584F85150184638BDBB
:102A4000FFF7BEFFC6E70120704700BF585A0020BD
:102A5000704700BF10B403460168022280F8392095
:102A60000A68012422430A6083F8394000205DF897
:102A7000044B704710B4036801221C6A8A4024EAA0
:102A800002041C62196A0B4C0A431A620368A342CF
:102A90000AD0094A934207D01A68002042F0010286
:102AA0001A605DF8044B70475A6C42F400425A6455
:102AB0000368F1E7002C0140003401401C4A036820
:102AC000904223D002F5006290421FD0B0F1804FB7
:102AD00013D0A2F5983290420FD002F58062904256
:102AE0000BD002F58062904207D003608B68C3620E
:102AF0000B6883620123436170474A6823F07003C7
:102B00001343CA6823F440731343EEE74A6823F083
:102B100070031343CA6823F44073134303608B6844
:102B2000C3620B6883620B690363012343617047CF
:102B3000002C0140C0B110B590F83930044603F0C4
:102B4000FF0263B12146022384F8393051F8040BA7
:102B5000FFF7B4FF012384F83930002010BD80F85E
:102B60003820FFF775FFEDE7012070470C488546D8
:102B7000002103E00B4B5B58435004310A480B4BD8
:102B800042189A42F6D30A4A02E0002342F8043B74
:102B9000084B9A42F9D3FDF7D5FEFDF751FBFEE74E
:102BA00000680020BC32002000500020945000201B
:102BB00098500020985A0020FEE7000008B5074B07
:102BC000044613B10021AFF30080054B1868836AF7
:102BD00003B198472046FDF73DFF00BF000000000D
:102BE000AC3200200E4B70B51E460E4C0025E41A88
:102BF000A410A54204D056F8253098470135F8E7CF
:102C000000F03AF8084B094C1E46E41AA4100025BF
:102C1000A54204D056F8253098470135F8E770BD35
:102C20008450002084500020845000208C500020CC
:102C300010B50A44441E914208D014F8013F0878A8
:102C4000834201D0181A10BD0131F4E7002010BDF5
:102C500010B5431E0A44914204D011F8014B03F809
:102C6000014FF8E710BD03460244934202D003F837
:102C7000011BFAE770470000F8B500BFF8BC08BCBC
:102C80009E467047F8B500BFF8BC08BC9E4670472A
:102C9000000000000000000001020304060708090C
:102CA000636F756C64206E6F742070696E6F7574DD
:102CB0000000000070696E6D6170206D69732D6D8C
:102CC000617463680000000070696E6D6170206E51
:102CD0006F7420666F756E6420666F722070657207
:102CE0006970686572616C0070696E6D6170206EEC
:102CF0006F7420666F756E6420666F722066756EE5
:102D00006374696F6E000000D5130020E913002082
:102D1000ED140020051500206D140020082D002062
:102D20005859002006000000003001400300000058
:102D300014000000003C0040030000001E000000E2
:102D40000038004003000000FF000000FFFFFFFF0D
:102D500000000000050000000030014003000000FA
:102D600013000000003C0040030000001D000000B4
:102D70000038004003000000FF000000FFFFFFFFDD
:102D800000000000070000000030014003000000C8
:102D900015000000003C0040030000001F00000080
:102DA0000038004003000000FF000000FFFFFFFFAD
:102DB000000000000400000000300140030000009B
:102DC0000800000000300140030000000F00000078
:102DD00000300140830000001C000000003800406B
:102DE00003000000FF000000FFFFFFFF00000000E5
:102DF00000000000010000001100000002000000BF
:102E0000120000000300000000001110000021105B
:102E100000003110000012100000221000003210DB
:102E20000000001050696E6D6170206572726F72E3
:102E30003A2077726F6E6720706F7274206E756DB6
:102E40006265722E000000000000000096300777D7
:102E50002C610EEEBA51099919C46D078FF46A708E
:102E600035A563E9A395649E3288DB0EA4B8DC79AE
:102E70001EE9D5E088D9D2972B4CB609BD7CB17E2E
:102E8000072DB8E7911DBF906410B71DF220B06AFE
:102E90004871B9F3DE41BE847DD4DA1AEBE4DD6D0E
:102EA00051B5D4F4C785D38356986C13C0A86B640E
:102EB0007AF962FDECC9658A4F5C0114D96C06632E
:102EC000633D0FFAF50D088DC8206E3B5E10694C0E
:102ED000E44160D5727167A2D1E4033C47D4044B4E
:102EE000FD850DD26BB50AA5FAA8B5356C98B2422E
:102EF000D6C9BBDB40F9BCACE36CD832755CDF45AE
:102F0000CF0DD6DC593DD1ABAC30D9263A00DE51DD
:102F10008051D7C81661D0BFB5F4B42123C4B356CD
:102F20009995BACF0FA5BDB89EB802280888055F4D
:102F3000B2D90CC624E90BB1877C6F2F114C6858AD
:102F4000AB1D61C13D2D66B69041DC760671DB019B
:102F5000BC20D2982A10D5EF8985B1711FB5B6066D
:102F6000A5E4BF9F33D4B8E8A2C9077834F9000FAD
:102F70008EA8099618980EE1BB0D6A7F2D3D6D084D
:102F8000976C6491015C63E6F4516B6B62616C1C3D
:102F9000D83065854E0062F2ED95066C7BA5011B6D
:102FA000C1F4088257C40FF5C6D9B06550E9B7120D
:102FB000EAB8BE8B7C88B9FCDF1DDD62492DDA15CD
:102FC000F37CD38C654CD4FB5861B24DCE51B53AED
:102FD0007400BCA3E230BBD441A5DF4AD795D83DED
:102FE0006DC4D1A4FBF4D6D36AE96943FCD96E342D
:102FF000468867ADD0B860DA732D0444E51D03330D
:103000005F4C0AAAC97C0DDD3C710550AA4102271C
:1030100010100BBE86200CC925B56857B3856F20EC
:1030200009D466B99FE461CE0EF9DE5E98C9D9294C
:103030002298D0B0B4A8D7C7173DB359810DB42E8C
:103040003B5CBDB7AD6CBAC02083B8EDB6B3BF9AD8
:103050000CE2B6039AD2B1743947D5EAAF77D29D64
:103060001526DB048316DC73120B63E3843B649444
:103070003E6A6D0DA85A6A7A0BCF0EE49DFF099344
:1030800027AE000AB19E077D44930FF0D2A30887B4
:1030900068F2011EFEC206695D5762F7CB67658064
:1030A00071366C19E7066B6E761BD4FEE02BD38964
:1030B0005A7ADA10CC4ADD676FDFB9F9F9EFBE8EC4
:1030C00043BEB717D58EB060E8A3D6D67E93D1A104
:1030D000C4C2D83852F2DF4FF167BBD16757BCA6E4
:1030E000DD06B53F4B36B248DA2B0DD84C1B0AAF84
:1030F000F64A0336607A0441C3EF60DF55DF67A804
:10310000EF8E6E3179BE69468CB361CB1A8366BC93
:10311000A0D26F2536E2685295770CCC03470BBBE3
:10312000B91602222F260555BE3BBAC5280BBDB2E3
:10313000925AB42B046AB35CA7FFD7C231CFD0B583
:103140008B9ED92C1DAEDE5BB0C2649B26F263EC75
:103150009CA36A750A936D02A906099C3F360EEB83
:103160008567077213570005824ABF95147AB8E243
:10317000AE2BB17B381BB60C9B8ED2920DBED5E523
:10318000B7EFDC7C21DFDB0BD4D2D38642E2D4F173
:10319000F8B3DD686E83DA1FCD16BE815B26B9F603
:1031A000E177B06F7747B718E65A0888706A0FFF63
:1031B000CA3B06665C0B0111FF9E658F69AE62F823
:1031C000D3FF6B6145CF6C1678E20AA0EED20DD723
:1031D0005483044EC2B30339612667A7F71660D043
:1031E0004D476949DB776E3E4A6AD1AEDC5AD6D983
:1031F000660BDF40F03BD83753AEBCA9C59EBBDEA3
:103200007FCFB247E9FFB5301CF2BDBD8AC2BACA52
:103210003093B353A6A3B4240536D0BA9306D7CDC2
:103220002957DE54BF67D9232E7A66B3B84A61C4E2
:10323000021B685D942B6F2A37BE0BB4A18E0CC3A2
:103240001BDF055A8DEF022D00000000000000007A
:10325000000000000000000000000000000000006E
:10326000000000000000000000000000000000005E
:10327000000000000000000000000000000000004E
:10328000000000000000000000000000000000003E
:10329000000000000000000000000000000000002E
:1032A0000000000000000000430000002450002047
:0432B000000000001A
:0832B4008CCFFF7F0100000038
:1032BC00106800200468002005680020FFFFFFFF55
:1032CC0010780020016800200268002003680020AC
:1032DC0000A24A040000000048320020683200209E
:1032EC0088320020000000000000000000000000F8
:1032FC0000000000A83200200000000000000000C8
:10330C0000000000000000000000000000000000B1
:10331C0000000000000000000000000000000000A1
:10332C000000000000000000000000000000000091
:10333C00000000000902002065070020E5010020C4
:04334C00000000007D
:0400000520002B6D3F
:00000001FF
